{"abi":[{"type":"constructor","inputs":[{"name":"initialOwner","type":"address","internalType":"address"}],"stateMutability":"nonpayable"},{"type":"function","name":"cidToReportId","inputs":[{"name":"","type":"string","internalType":"string"}],"outputs":[{"name":"","type":"uint256","internalType":"uint256"}],"stateMutability":"view"},{"type":"function","name":"getPetReportCount","inputs":[{"name":"_petId","type":"string","internalType":"string"}],"outputs":[{"name":"","type":"uint256","internalType":"uint256"}],"stateMutability":"view"},{"type":"function","name":"getPetReports","inputs":[{"name":"_petId","type":"string","internalType":"string"}],"outputs":[{"name":"","type":"uint256[]","internalType":"uint256[]"}],"stateMutability":"view"},{"type":"function","name":"getReport","inputs":[{"name":"_reportId","type":"uint256","internalType":"uint256"}],"outputs":[{"name":"","type":"tuple","internalType":"struct HealthReport.Report","components":[{"name":"reportId","type":"uint256","internalType":"uint256"},{"name":"petId","type":"string","internalType":"string"},{"name":"reportType","type":"string","internalType":"string"},{"name":"reportName","type":"string","internalType":"string"},{"name":"ipfsCID","type":"string","internalType":"string"},{"name":"description","type":"string","internalType":"string"},{"name":"owner","type":"address","internalType":"address"},{"name":"timestamp","type":"uint256","internalType":"uint256"},{"name":"isValid","type":"bool","internalType":"bool"}]}],"stateMutability":"view"},{"type":"function","name":"getReportByCID","inputs":[{"name":"_ipfsCID","type":"string","internalType":"string"}],"outputs":[{"name":"","type":"tuple","internalType":"struct HealthReport.Report","components":[{"name":"reportId","type":"uint256","internalType":"uint256"},{"name":"petId","type":"string","internalType":"string"},{"name":"reportType","type":"string","internalType":"string"},{"name":"reportName","type":"string","internalType":"string"},{"name":"ipfsCID","type":"string","internalType":"string"},{"name":"description","type":"string","internalType":"string"},{"name":"owner","type":"address","internalType":"address"},{"name":"timestamp","type":"uint256","internalType":"uint256"},{"name":"isValid","type":"bool","internalType":"bool"}]}],"stateMutability":"view"},{"type":"function","name":"getReportIdByCID","inputs":[{"name":"_ipfsCID","type":"string","internalType":"string"}],"outputs":[{"name":"","type":"uint256","internalType":"uint256"}],"stateMutability":"view"},{"type":"function","name":"getReportsBatch","inputs":[{"name":"_reportIds","type":"uint256[]","internalType":"uint256[]"}],"outputs":[{"name":"","type":"tuple[]","internalType":"struct HealthReport.Report[]","components":[{"name":"reportId","type":"uint256","internalType":"uint256"},{"name":"petId","type":"string","internalType":"string"},{"name":"reportType","type":"string","internalType":"string"},{"name":"reportName","type":"string","internalType":"string"},{"name":"ipfsCID","type":"string","internalType":"string"},{"name":"description","type":"string","internalType":"string"},{"name":"owner","type":"address","internalType":"address"},{"name":"timestamp","type":"uint256","internalType":"uint256"},{"name":"isValid","type":"bool","internalType":"bool"}]}],"stateMutability":"view"},{"type":"function","name":"getTotalReportCount","inputs":[],"outputs":[{"name":"","type":"uint256","internalType":"uint256"}],"stateMutability":"view"},{"type":"function","name":"getUserReportCount","inputs":[{"name":"_user","type":"address","internalType":"address"}],"outputs":[{"name":"","type":"uint256","internalType":"uint256"}],"stateMutability":"view"},{"type":"function","name":"getUserReports","inputs":[{"name":"_user","type":"address","internalType":"address"}],"outputs":[{"name":"","type":"uint256[]","internalType":"uint256[]"}],"stateMutability":"view"},{"type":"function","name":"invalidateReport","inputs":[{"name":"_reportId","type":"uint256","internalType":"uint256"}],"outputs":[],"stateMutability":"nonpayable"},{"type":"function","name":"isCIDUsed","inputs":[{"name":"_ipfsCID","type":"string","internalType":"string"}],"outputs":[{"name":"","type":"bool","internalType":"bool"}],"stateMutability":"view"},{"type":"function","name":"isValidReport","inputs":[{"name":"_reportId","type":"uint256","internalType":"uint256"}],"outputs":[{"name":"","type":"bool","internalType":"bool"}],"stateMutability":"view"},{"type":"function","name":"owner","inputs":[],"outputs":[{"name":"","type":"address","internalType":"address"}],"stateMutability":"view"},{"type":"function","name":"petCoinContract","inputs":[],"outputs":[{"name":"","type":"address","internalType":"address"}],"stateMutability":"view"},{"type":"function","name":"petReports","inputs":[{"name":"","type":"string","internalType":"string"},{"name":"","type":"uint256","internalType":"uint256"}],"outputs":[{"name":"","type":"uint256","internalType":"uint256"}],"stateMutability":"view"},{"type":"function","name":"renounceOwnership","inputs":[],"outputs":[],"stateMutability":"nonpayable"},{"type":"function","name":"reportCounter","inputs":[],"outputs":[{"name":"","type":"uint256","internalType":"uint256"}],"stateMutability":"view"},{"type":"function","name":"reports","inputs":[{"name":"","type":"uint256","internalType":"uint256"}],"outputs":[{"name":"reportId","type":"uint256","internalType":"uint256"},{"name":"petId","type":"string","internalType":"string"},{"name":"reportType","type":"string","internalType":"string"},{"name":"reportName","type":"string","internalType":"string"},{"name":"ipfsCID","type":"string","internalType":"string"},{"name":"description","type":"string","internalType":"string"},{"name":"owner","type":"address","internalType":"address"},{"name":"timestamp","type":"uint256","internalType":"uint256"},{"name":"isValid","type":"bool","internalType":"bool"}],"stateMutability":"view"},{"type":"function","name":"setPetCoinContract","inputs":[{"name":"_petCoinContract","type":"address","internalType":"address"}],"outputs":[],"stateMutability":"nonpayable"},{"type":"function","name":"transferOwnership","inputs":[{"name":"newOwner","type":"address","internalType":"address"}],"outputs":[],"stateMutability":"nonpayable"},{"type":"function","name":"updateReportCID","inputs":[{"name":"_reportId","type":"uint256","internalType":"uint256"},{"name":"_newIpfsCID","type":"string","internalType":"string"}],"outputs":[],"stateMutability":"nonpayable"},{"type":"function","name":"uploadReport","inputs":[{"name":"_petId","type":"string","internalType":"string"},{"name":"_reportType","type":"string","internalType":"string"},{"name":"_reportName","type":"string","internalType":"string"},{"name":"_ipfsCID","type":"string","internalType":"string"},{"name":"_description","type":"string","internalType":"string"}],"outputs":[],"stateMutability":"nonpayable"},{"type":"function","name":"usedCIDs","inputs":[{"name":"","type":"string","internalType":"string"}],"outputs":[{"name":"","type":"bool","internalType":"bool"}],"stateMutability":"view"},{"type":"function","name":"userReports","inputs":[{"name":"","type":"address","internalType":"address"},{"name":"","type":"uint256","internalType":"uint256"}],"outputs":[{"name":"","type":"uint256","internalType":"uint256"}],"stateMutability":"view"},{"type":"event","name":"CIDAlreadyUsed","inputs":[{"name":"ipfsCID","type":"string","indexed":true,"internalType":"string"},{"name":"existingReportId","type":"uint256","indexed":false,"internalType":"uint256"},{"name":"attemptedBy","type":"address","indexed":false,"internalType":"address"}],"anonymous":false},{"type":"event","name":"OwnershipTransferred","inputs":[{"name":"previousOwner","type":"address","indexed":true,"internalType":"address"},{"name":"newOwner","type":"address","indexed":true,"internalType":"address"}],"anonymous":false},{"type":"event","name":"PetCoinContractUpdated","inputs":[{"name":"newContract","type":"address","indexed":true,"internalType":"address"}],"anonymous":false},{"type":"event","name":"ReportInvalidated","inputs":[{"name":"reportId","type":"uint256","indexed":true,"internalType":"uint256"},{"name":"owner","type":"address","indexed":true,"internalType":"address"}],"anonymous":false},{"type":"event","name":"ReportUpdated","inputs":[{"name":"reportId","type":"uint256","indexed":true,"internalType":"uint256"},{"name":"owner","type":"address","indexed":true,"internalType":"address"},{"name":"ipfsCID","type":"string","indexed":false,"internalType":"string"}],"anonymous":false},{"type":"event","name":"ReportUploaded","inputs":[{"name":"reportId","type":"uint256","indexed":true,"internalType":"uint256"},{"name":"owner","type":"address","indexed":true,"internalType":"address"},{"name":"petId","type":"string","indexed":true,"internalType":"string"},{"name":"reportType","type":"string","indexed":false,"internalType":"string"},{"name":"ipfsCID","type":"string","indexed":false,"internalType":"string"},{"name":"timestamp","type":"uint256","indexed":false,"internalType":"uint256"}],"anonymous":false},{"type":"error","name":"OwnableInvalidOwner","inputs":[{"name":"owner","type":"address","internalType":"address"}]},{"type":"error","name":"OwnableUnauthorizedAccount","inputs":[{"name":"account","type":"address","internalType":"address"}]},{"type":"error","name":"ReentrancyGuardReentrantCall","inputs":[]}],"bytecode":{"object":"0x608060405234801562000010575f80fd5b5060405162002756380380620027568339810160408190526200003391620000cc565b806001600160a01b0381166200006257604051631e4fbdf760e01b81525f600482015260240160405180910390fd5b6200006d816200007d565b50506001808055600755620000fb565b5f80546001600160a01b038381166001600160a01b0319831681178455604051919092169283917f8be0079c531659141344cd1fd0a4f28419497f9722a3daafe3b4186f6b6457e09190a35050565b5f60208284031215620000dd575f80fd5b81516001600160a01b0381168114620000f4575f80fd5b9392505050565b61264d80620001095f395ff3fe608060405234801561000f575f80fd5b506004361061016d575f3560e01c8063715018a6116100d9578063c7e83f6e11610093578063da1617fb1161006e578063da1617fb14610389578063e4efe3241461039c578063e8f4a562146103af578063f2fde38b146103d7575f80fd5b8063c7e83f6e1461033b578063c942adf71461034e578063d6248e0014610376575f80fd5b8063715018a6146102b95780638da5cb5b146102c15780639df1dbf8146102d1578063a382ebfe146102ff578063ad2af0441461031f578063b9bc38f214610332575f80fd5b80634e7f9b191161012a5780634e7f9b19146102425780635a328b94146102555780635a345e46146102685780636258f1c11461027b578063703bdf671461028357806370a05afc146102a6575f80fd5b80630591fe301461017157806324981889146101a15780633ae6031d146101c15780633f49b09d146101fa5780633f8132011461020f5780634a8e46c61461022f575b5f80fd5b600854610184906001600160a01b031681565b6040516001600160a01b0390911681526020015b60405180910390f35b6101b46101af366004611e93565b6103ea565b6040516101989190611ecd565b6101ec6101cf366004611e93565b805160208183018101805160068252928201919093012091525481565b604051908152602001610198565b61020d610208366004611f10565b610458565b005b61022261021d366004611e93565b6105d9565b6040516101989190612041565b6101ec61023d366004611e93565b610996565b610222610250366004611f10565b610a2c565b61020d610263366004612075565b610d89565b6101ec61027636600461208e565b610e3f565b6101ec610e6a565b610296610291366004611f10565b610e7f565b6040519015158152602001610198565b6101b46102b4366004612075565b610eb3565b61020d610f1a565b5f546001600160a01b0316610184565b6102966102df366004611e93565b805160208183018101805160058252928201919093012091525460ff1681565b61031261030d3660046120b6565b610f2d565b6040516101989190612157565b61020d61032d3660046121b7565b611364565b6101ec60075481565b6101ec610349366004611e93565b6117ca565b61036161035c366004611f10565b6117f1565b60405161019899989796959493929190612280565b6101ec610384366004612317565b611ae4565b61020d610397366004612359565b611b0e565b6102966103aa366004611e93565b611c83565b6101ec6103bd366004612075565b6001600160a01b03165f9081526003602052604090205490565b61020d6103e5366004612075565b611cad565b60606004826040516103fc919061239d565b908152604080519182900360209081018320805480830285018301909352828452919083018282801561044c57602002820191905f5260205f20905b815481526020019060010190808311610438575b50505050509050919050565b5f81118015610468575060075481105b61048d5760405162461bcd60e51b8152600401610484906123b8565b60405180910390fd5b5f818152600260205260409020600601546001600160a01b03163314806104cc5750336104c15f546001600160a01b031690565b6001600160a01b0316145b6105185760405162461bcd60e51b815260206004820152601c60248201527f4865616c74685265706f72743a204e6f7420617574686f72697a6564000000006044820152606401610484565b5f8181526002602052604090206008015460ff166105845760405162461bcd60e51b8152602060048201526024808201527f4865616c74685265706f72743a205265706f727420616c726561647920696e76604482015263185b1a5960e21b6064820152608401610484565b5f8181526002602052604080822060088101805460ff191690556006015490516001600160a01b039091169183917f270cb10b21e20dc402d75d3397e56bb6bce5baee597ba955f3e787092e7b087f9190a350565b6105e1611d8f565b6005826040516105f1919061239d565b9081526040519081900360200190205460ff166106505760405162461bcd60e51b815260206004820152601b60248201527f4865616c74685265706f72743a20434944206e6f7420666f756e6400000000006044820152606401610484565b5f600683604051610661919061239d565b908152604080519182900360209081018320545f8181526002835283902061012085019093528254845260018301805491955091840191906106a2906123ef565b80601f01602080910402602001604051908101604052809291908181526020018280546106ce906123ef565b80156107195780601f106106f057610100808354040283529160200191610719565b820191905f5260205f20905b8154815290600101906020018083116106fc57829003601f168201915b50505050508152602001600282018054610732906123ef565b80601f016020809104026020016040519081016040528092919081815260200182805461075e906123ef565b80156107a95780601f10610780576101008083540402835291602001916107a9565b820191905f5260205f20905b81548152906001019060200180831161078c57829003601f168201915b505050505081526020016003820180546107c2906123ef565b80601f01602080910402602001604051908101604052809291908181526020018280546107ee906123ef565b80156108395780601f1061081057610100808354040283529160200191610839565b820191905f5260205f20905b81548152906001019060200180831161081c57829003601f168201915b50505050508152602001600482018054610852906123ef565b80601f016020809104026020016040519081016040528092919081815260200182805461087e906123ef565b80156108c95780601f106108a0576101008083540402835291602001916108c9565b820191905f5260205f20905b8154815290600101906020018083116108ac57829003601f168201915b505050505081526020016005820180546108e2906123ef565b80601f016020809104026020016040519081016040528092919081815260200182805461090e906123ef565b80156109595780601f1061093057610100808354040283529160200191610959565b820191905f5260205f20905b81548152906001019060200180831161093c57829003601f168201915b505050918352505060068201546001600160a01b031660208201526007820154604082015260089091015460ff1615156060909101529392505050565b5f6005826040516109a7919061239d565b9081526040519081900360200190205460ff16610a065760405162461bcd60e51b815260206004820152601b60248201527f4865616c74685265706f72743a20434944206e6f7420666f756e6400000000006044820152606401610484565b600682604051610a16919061239d565b9081526020016040518091039020549050919050565b610a34611d8f565b5f82118015610a44575060075482105b610a605760405162461bcd60e51b8152600401610484906123b8565b60025f8381526020019081526020015f20604051806101200160405290815f8201548152602001600182018054610a96906123ef565b80601f0160208091040260200160405190810160405280929190818152602001828054610ac2906123ef565b8015610b0d5780601f10610ae457610100808354040283529160200191610b0d565b820191905f5260205f20905b815481529060010190602001808311610af057829003601f168201915b50505050508152602001600282018054610b26906123ef565b80601f0160208091040260200160405190810160405280929190818152602001828054610b52906123ef565b8015610b9d5780601f10610b7457610100808354040283529160200191610b9d565b820191905f5260205f20905b815481529060010190602001808311610b8057829003601f168201915b50505050508152602001600382018054610bb6906123ef565b80601f0160208091040260200160405190810160405280929190818152602001828054610be2906123ef565b8015610c2d5780601f10610c0457610100808354040283529160200191610c2d565b820191905f5260205f20905b815481529060010190602001808311610c1057829003601f168201915b50505050508152602001600482018054610c46906123ef565b80601f0160208091040260200160405190810160405280929190818152602001828054610c72906123ef565b8015610cbd5780601f10610c9457610100808354040283529160200191610cbd565b820191905f5260205f20905b815481529060010190602001808311610ca057829003601f168201915b50505050508152602001600582018054610cd6906123ef565b80601f0160208091040260200160405190810160405280929190818152602001828054610d02906123ef565b8015610d4d5780601f10610d2457610100808354040283529160200191610d4d565b820191905f5260205f20905b815481529060010190602001808311610d3057829003601f168201915b505050918352505060068201546001600160a01b031660208201526007820154604082015260089091015460ff16151560609091015292915050565b610d91611cea565b6001600160a01b038116610df65760405162461bcd60e51b815260206004820152602660248201527f4865616c74685265706f72743a20496e76616c696420636f6e7472616374206160448201526564647265737360d01b6064820152608401610484565b600880546001600160a01b0319166001600160a01b0383169081179091556040517fa28c7ff640def38baf755289ea829e88a3a5767bd2e274e887810139c514591d905f90a250565b6003602052815f5260405f208181548110610e58575f80fd5b905f5260205f20015f91509150505481565b5f6001600754610e7a919061243b565b905090565b5f811580610e8f57506007548210155b15610e9b57505f919050565b505f9081526002602052604090206008015460ff1690565b6001600160a01b0381165f9081526003602090815260409182902080548351818402810184019094528084526060939283018282801561044c57602002820191905f5260205f20908154815260200190600101908083116104385750505050509050919050565b610f22611cea565b610f2b5f611d16565b565b60605f825167ffffffffffffffff811115610f4a57610f4a611de2565b604051908082528060200260200182016040528015610f8357816020015b610f70611d8f565b815260200190600190039081610f685790505b5090505f5b835181101561135d575f848281518110610fa457610fa4612454565b6020026020010151118015610fd35750600754848281518110610fc957610fc9612454565b6020026020010151105b610fef5760405162461bcd60e51b8152600401610484906123b8565b60025f85838151811061100457611004612454565b602002602001015181526020019081526020015f20604051806101200160405290815f820154815260200160018201805461103e906123ef565b80601f016020809104026020016040519081016040528092919081815260200182805461106a906123ef565b80156110b55780601f1061108c576101008083540402835291602001916110b5565b820191905f5260205f20905b81548152906001019060200180831161109857829003601f168201915b505050505081526020016002820180546110ce906123ef565b80601f01602080910402602001604051908101604052809291908181526020018280546110fa906123ef565b80156111455780601f1061111c57610100808354040283529160200191611145565b820191905f5260205f20905b81548152906001019060200180831161112857829003601f168201915b5050505050815260200160038201805461115e906123ef565b80601f016020809104026020016040519081016040528092919081815260200182805461118a906123ef565b80156111d55780601f106111ac576101008083540402835291602001916111d5565b820191905f5260205f20905b8154815290600101906020018083116111b857829003601f168201915b505050505081526020016004820180546111ee906123ef565b80601f016020809104026020016040519081016040528092919081815260200182805461121a906123ef565b80156112655780601f1061123c57610100808354040283529160200191611265565b820191905f5260205f20905b81548152906001019060200180831161124857829003601f168201915b5050505050815260200160058201805461127e906123ef565b80601f01602080910402602001604051908101604052809291908181526020018280546112aa906123ef565b80156112f55780601f106112cc576101008083540402835291602001916112f5565b820191905f5260205f20905b8154815290600101906020018083116112d857829003601f168201915b505050918352505060068201546001600160a01b031660208201526007820154604082015260089091015460ff161515606090910152825183908390811061133f5761133f612454565b6020026020010181905250808061135590612468565b915050610f88565b5092915050565b61136c611d65565b5f8551116113c85760405162461bcd60e51b8152602060048201526024808201527f4865616c74685265706f72743a205065742049442063616e6e6f7420626520656044820152636d70747960e01b6064820152608401610484565b5f84511161142a5760405162461bcd60e51b815260206004820152602960248201527f4865616c74685265706f72743a205265706f727420747970652063616e6e6f7460448201526820626520656d70747960b81b6064820152608401610484565b5f83511161148c5760405162461bcd60e51b815260206004820152602960248201527f4865616c74685265706f72743a205265706f7274206e616d652063616e6e6f7460448201526820626520656d70747960b81b6064820152608401610484565b5f8251116114ac5760405162461bcd60e51b815260040161048490612480565b6005826040516114bc919061239d565b9081526040519081900360200190205460ff16156115315760405162461bcd60e51b815260206004820152602c60248201527f4865616c74685265706f72743a2054686973204349442068617320616c72656160448201526b191e481899595b881d5cd95960a21b6064820152608401610484565b6001600583604051611543919061239d565b9081526040805160209281900383018120805460ff19169415159490941790935560075461012084018252808452828401898152848301899052606085018890526080850187905260a085018690523360c08601524260e0860152600161010086018190525f838152600290955292909320845181559251909392918201906115cc9082612514565b50604082015160028201906115e19082612514565b50606082015160038201906115f69082612514565b506080820151600482019061160b9082612514565b5060a082015160058201906116209082612514565b5060c08201516006820180546001600160a01b0319166001600160a01b0390921691909117905560e08201516007820155610100909101516008909101805460ff1916911515919091179055335f908152600360209081526040808320805460018101825590845291909220018290555160049061169f90889061239d565b908152604051908190036020908101822080546001810182555f9182529190200182905581906006906116d390869061239d565b9081526040519081900360200190205560078054905f6116f283612468565b919050555085604051611705919061239d565b6040518091039020336001600160a01b0316827fb7959e6c14a2df129491f5ea15420c6f78d07643efd908ec6b34e276c9d0fbcf88874260405161174b939291906125d0565b60405180910390a46008546001600160a01b0316156117b95760085460405163a6afd7db60e01b81523360048201526001600160a01b039091169063a6afd7db906024015f604051808303815f87803b1580156117a6575f80fd5b505af19250505080156117b7575060015b505b506117c360018055565b5050505050565b5f6004826040516117db919061239d565b9081526040519081900360200190205492915050565b60026020525f908152604090208054600182018054919291611812906123ef565b80601f016020809104026020016040519081016040528092919081815260200182805461183e906123ef565b80156118895780601f1061186057610100808354040283529160200191611889565b820191905f5260205f20905b81548152906001019060200180831161186c57829003601f168201915b50505050509080600201805461189e906123ef565b80601f01602080910402602001604051908101604052809291908181526020018280546118ca906123ef565b80156119155780601f106118ec57610100808354040283529160200191611915565b820191905f5260205f20905b8154815290600101906020018083116118f857829003601f168201915b50505050509080600301805461192a906123ef565b80601f0160208091040260200160405190810160405280929190818152602001828054611956906123ef565b80156119a15780601f10611978576101008083540402835291602001916119a1565b820191905f5260205f20905b81548152906001019060200180831161198457829003601f168201915b5050505050908060040180546119b6906123ef565b80601f01602080910402602001604051908101604052809291908181526020018280546119e2906123ef565b8015611a2d5780601f10611a0457610100808354040283529160200191611a2d565b820191905f5260205f20905b815481529060010190602001808311611a1057829003601f168201915b505050505090806005018054611a42906123ef565b80601f0160208091040260200160405190810160405280929190818152602001828054611a6e906123ef565b8015611ab95780601f10611a9057610100808354040283529160200191611ab9565b820191905f5260205f20905b815481529060010190602001808311611a9c57829003601f168201915b505050506006830154600784015460089094015492936001600160a01b039091169290915060ff1689565b81516020818401810180516004825292820191850191909120919052805482908110610e58575f80fd5b5f82118015611b1e575060075482105b611b3a5760405162461bcd60e51b8152600401610484906123b8565b5f828152600260205260409020600601546001600160a01b03163314611ba25760405162461bcd60e51b815260206004820152601b60248201527f4865616c74685265706f72743a204e6f7420746865206f776e657200000000006044820152606401610484565b5f8281526002602052604090206008015460ff16611c025760405162461bcd60e51b815260206004820152601f60248201527f4865616c74685265706f72743a205265706f727420697320696e76616c6964006044820152606401610484565b5f815111611c225760405162461bcd60e51b815260040161048490612480565b5f828152600260205260409020600401611c3c8282612514565b50336001600160a01b0316827f388661c217b232fc71345e51a2e1e39c7d34da37117853cb5b3dde951a54884f83604051611c779190612605565b60405180910390a35050565b5f600582604051611c94919061239d565b9081526040519081900360200190205460ff1692915050565b611cb5611cea565b6001600160a01b038116611cde57604051631e4fbdf760e01b81525f6004820152602401610484565b611ce781611d16565b50565b5f546001600160a01b03163314610f2b5760405163118cdaa760e01b8152336004820152602401610484565b5f80546001600160a01b038381166001600160a01b0319831681178455604051919092169283917f8be0079c531659141344cd1fd0a4f28419497f9722a3daafe3b4186f6b6457e09190a35050565b600260015403611d8857604051633ee5aeb560e01b815260040160405180910390fd5b6002600155565b6040518061012001604052805f815260200160608152602001606081526020016060815260200160608152602001606081526020015f6001600160a01b031681526020015f81526020015f151581525090565b634e487b7160e01b5f52604160045260245ffd5b604051601f8201601f1916810167ffffffffffffffff81118282101715611e1f57611e1f611de2565b604052919050565b5f82601f830112611e36575f80fd5b813567ffffffffffffffff811115611e5057611e50611de2565b611e63601f8201601f1916602001611df6565b818152846020838601011115611e77575f80fd5b816020850160208301375f918101602001919091529392505050565b5f60208284031215611ea3575f80fd5b813567ffffffffffffffff811115611eb9575f80fd5b611ec584828501611e27565b949350505050565b602080825282518282018190525f9190848201906040850190845b81811015611f0457835183529284019291840191600101611ee8565b50909695505050505050565b5f60208284031215611f20575f80fd5b5035919050565b5f5b83811015611f41578181015183820152602001611f29565b50505f910152565b5f8151808452611f60816020860160208601611f27565b601f01601f19169290920160200192915050565b5f610120825184526020830151816020860152611f9382860182611f49565b91505060408301518482036040860152611fad8282611f49565b91505060608301518482036060860152611fc78282611f49565b91505060808301518482036080860152611fe18282611f49565b91505060a083015184820360a0860152611ffb8282611f49565b91505060c083015161201860c08601826001600160a01b03169052565b5060e083015160e0850152610100808401516120378287018215159052565b5090949350505050565b602081525f6120536020830184611f74565b9392505050565b80356001600160a01b0381168114612070575f80fd5b919050565b5f60208284031215612085575f80fd5b6120538261205a565b5f806040838503121561209f575f80fd5b6120a88361205a565b946020939093013593505050565b5f60208083850312156120c7575f80fd5b823567ffffffffffffffff808211156120de575f80fd5b818501915085601f8301126120f1575f80fd5b81358181111561210357612103611de2565b8060051b9150612114848301611df6565b818152918301840191848101908884111561212d575f80fd5b938501935b8385101561214b57843582529385019390850190612132565b98975050505050505050565b5f602080830181845280855180835260408601915060408160051b87010192508387015f5b828110156121aa57603f19888603018452612198858351611f74565b9450928501929085019060010161217c565b5092979650505050505050565b5f805f805f60a086880312156121cb575f80fd5b853567ffffffffffffffff808211156121e2575f80fd5b6121ee89838a01611e27565b96506020880135915080821115612203575f80fd5b61220f89838a01611e27565b95506040880135915080821115612224575f80fd5b61223089838a01611e27565b94506060880135915080821115612245575f80fd5b61225189838a01611e27565b93506080880135915080821115612266575f80fd5b5061227388828901611e27565b9150509295509295909350565b5f6101208b83528060208401526122998184018c611f49565b905082810360408401526122ad818b611f49565b905082810360608401526122c1818a611f49565b905082810360808401526122d58189611f49565b905082810360a08401526122e98188611f49565b6001600160a01b039690961660c0840152505060e08101929092521515610100909101529695505050505050565b5f8060408385031215612328575f80fd5b823567ffffffffffffffff81111561233e575f80fd5b61234a85828601611e27565b95602094909401359450505050565b5f806040838503121561236a575f80fd5b82359150602083013567ffffffffffffffff811115612387575f80fd5b61239385828601611e27565b9150509250929050565b5f82516123ae818460208701611f27565b9190910192915050565b6020808252601f908201527f4865616c74685265706f72743a20496e76616c6964207265706f727420494400604082015260600190565b600181811c9082168061240357607f821691505b60208210810361242157634e487b7160e01b5f52602260045260245ffd5b50919050565b634e487b7160e01b5f52601160045260245ffd5b8181038181111561244e5761244e612427565b92915050565b634e487b7160e01b5f52603260045260245ffd5b5f6001820161247957612479612427565b5060010190565b60208082526026908201527f4865616c74685265706f72743a2049504653204349442063616e6e6f7420626560408201526520656d70747960d01b606082015260800190565b601f82111561250f575f81815260208120601f850160051c810160208610156124ec5750805b601f850160051c820191505b8181101561250b578281556001016124f8565b5050505b505050565b815167ffffffffffffffff81111561252e5761252e611de2565b6125428161253c84546123ef565b846124c6565b602080601f831160018114612575575f841561255e5750858301515b5f19600386901b1c1916600185901b17855561250b565b5f85815260208120601f198616915b828110156125a357888601518255948401946001909101908401612584565b50858210156125c057878501515f19600388901b60f8161c191681555b5050505050600190811b01905550565b606081525f6125e26060830186611f49565b82810360208401526125f48186611f49565b915050826040830152949350505050565b602081525f6120536020830184611f4956fea26469706673582212207d917af4ce0ab2a4b833709e357401ef08114fe6e3726a301e71277d3eafc63364736f6c63430008140033","linkReferences":{}},"methodIdentifiers":{"cidToReportId(string)":"3ae6031d","getPetReportCount(string)":"c7e83f6e","getPetReports(string)":"24981889","getReport(uint256)":"4e7f9b19","getReportByCID(string)":"3f813201","getReportIdByCID(string)":"4a8e46c6","getReportsBatch(uint256[])":"a382ebfe","getTotalReportCount()":"6258f1c1","getUserReportCount(address)":"e8f4a562","getUserReports(address)":"70a05afc","invalidateReport(uint256)":"3f49b09d","isCIDUsed(string)":"e4efe324","isValidReport(uint256)":"703bdf67","owner()":"8da5cb5b","petCoinContract()":"0591fe30","petReports(string,uint256)":"d6248e00","renounceOwnership()":"715018a6","reportCounter()":"b9bc38f2","reports(uint256)":"c942adf7","setPetCoinContract(address)":"5a328b94","transferOwnership(address)":"f2fde38b","updateReportCID(uint256,string)":"da1617fb","uploadReport(string,string,string,string,string)":"ad2af044","usedCIDs(string)":"9df1dbf8","userReports(address,uint256)":"5a345e46"},"id":28}