{"abi":[{"type":"constructor","inputs":[{"name":"petCoinAddr","type":"address","internalType":"address"}],"stateMutability":"nonpayable"},{"type":"function","name":"MINT_FEE","inputs":[],"outputs":[{"name":"","type":"uint256","internalType":"uint256"}],"stateMutability":"view"},{"type":"function","name":"approve","inputs":[{"name":"to","type":"address","internalType":"address"},{"name":"tokenId","type":"uint256","internalType":"uint256"}],"outputs":[],"stateMutability":"nonpayable"},{"type":"function","name":"balanceOf","inputs":[{"name":"owner","type":"address","internalType":"address"}],"outputs":[{"name":"","type":"uint256","internalType":"uint256"}],"stateMutability":"view"},{"type":"function","name":"getApproved","inputs":[{"name":"tokenId","type":"uint256","internalType":"uint256"}],"outputs":[{"name":"","type":"address","internalType":"address"}],"stateMutability":"view"},{"type":"function","name":"getNFTMetadata","inputs":[{"name":"tokenId","type":"uint256","internalType":"uint256"}],"outputs":[{"name":"","type":"tuple","internalType":"struct PetNFT.PetNFTMetadata","components":[{"name":"tokenId","type":"uint256","internalType":"uint256"},{"name":"name","type":"string","internalType":"string"},{"name":"imageCID","type":"string","internalType":"string"},{"name":"description","type":"string","internalType":"string"},{"name":"owner","type":"address","internalType":"address"},{"name":"timestamp","type":"uint256","internalType":"uint256"},{"name":"exists","type":"bool","internalType":"bool"}]}],"stateMutability":"view"},{"type":"function","name":"getTokenIdByCID","inputs":[{"name":"imageCID","type":"string","internalType":"string"}],"outputs":[{"name":"","type":"uint256","internalType":"uint256"}],"stateMutability":"view"},{"type":"function","name":"getTotalSupply","inputs":[],"outputs":[{"name":"","type":"uint256","internalType":"uint256"}],"stateMutability":"view"},{"type":"function","name":"getUserNFTCount","inputs":[{"name":"user","type":"address","internalType":"address"}],"outputs":[{"name":"","type":"uint256","internalType":"uint256"}],"stateMutability":"view"},{"type":"function","name":"getUserNFTs","inputs":[{"name":"user","type":"address","internalType":"address"}],"outputs":[{"name":"","type":"uint256[]","internalType":"uint256[]"}],"stateMutability":"view"},{"type":"function","name":"isApprovedForAll","inputs":[{"name":"owner","type":"address","internalType":"address"},{"name":"operator","type":"address","internalType":"address"}],"outputs":[{"name":"","type":"bool","internalType":"bool"}],"stateMutability":"view"},{"type":"function","name":"isCIDUsed","inputs":[{"name":"cid","type":"string","internalType":"string"}],"outputs":[{"name":"","type":"bool","internalType":"bool"}],"stateMutability":"view"},{"type":"function","name":"mint","inputs":[{"name":"nftName","type":"string","internalType":"string"},{"name":"imageCID","type":"string","internalType":"string"},{"name":"description","type":"string","internalType":"string"}],"outputs":[],"stateMutability":"nonpayable"},{"type":"function","name":"name","inputs":[],"outputs":[{"name":"","type":"string","internalType":"string"}],"stateMutability":"pure"},{"type":"function","name":"nftMetadata","inputs":[{"name":"","type":"uint256","internalType":"uint256"}],"outputs":[{"name":"tokenId","type":"uint256","internalType":"uint256"},{"name":"name","type":"string","internalType":"string"},{"name":"imageCID","type":"string","internalType":"string"},{"name":"description","type":"string","internalType":"string"},{"name":"owner","type":"address","internalType":"address"},{"name":"timestamp","type":"uint256","internalType":"uint256"},{"name":"exists","type":"bool","internalType":"bool"}],"stateMutability":"view"},{"type":"function","name":"owner","inputs":[],"outputs":[{"name":"","type":"address","internalType":"address"}],"stateMutability":"view"},{"type":"function","name":"ownerOf","inputs":[{"name":"tokenId","type":"uint256","internalType":"uint256"}],"outputs":[{"name":"","type":"address","internalType":"address"}],"stateMutability":"view"},{"type":"function","name":"petCoin","inputs":[],"outputs":[{"name":"","type":"address","internalType":"contract IPetCoin"}],"stateMutability":"view"},{"type":"function","name":"renounceOwnership","inputs":[],"outputs":[],"stateMutability":"nonpayable"},{"type":"function","name":"safeTransferFrom","inputs":[{"name":"from","type":"address","internalType":"address"},{"name":"to","type":"address","internalType":"address"},{"name":"tokenId","type":"uint256","internalType":"uint256"}],"outputs":[],"stateMutability":"nonpayable"},{"type":"function","name":"safeTransferFrom","inputs":[{"name":"from","type":"address","internalType":"address"},{"name":"to","type":"address","internalType":"address"},{"name":"tokenId","type":"uint256","internalType":"uint256"},{"name":"","type":"bytes","internalType":"bytes"}],"outputs":[],"stateMutability":"nonpayable"},{"type":"function","name":"setApprovalForAll","inputs":[{"name":"operator","type":"address","internalType":"address"},{"name":"approved","type":"bool","internalType":"bool"}],"outputs":[],"stateMutability":"nonpayable"},{"type":"function","name":"symbol","inputs":[],"outputs":[{"name":"","type":"string","internalType":"string"}],"stateMutability":"pure"},{"type":"function","name":"tokenURI","inputs":[{"name":"tokenId","type":"uint256","internalType":"uint256"}],"outputs":[{"name":"","type":"string","internalType":"string"}],"stateMutability":"view"},{"type":"function","name":"totalSupply","inputs":[],"outputs":[{"name":"","type":"uint256","internalType":"uint256"}],"stateMutability":"view"},{"type":"function","name":"transferFrom","inputs":[{"name":"from","type":"address","internalType":"address"},{"name":"to","type":"address","internalType":"address"},{"name":"tokenId","type":"uint256","internalType":"uint256"}],"outputs":[],"stateMutability":"nonpayable"},{"type":"function","name":"transferOwnership","inputs":[{"name":"newOwner","type":"address","internalType":"address"}],"outputs":[],"stateMutability":"nonpayable"},{"type":"function","name":"userNFTs","inputs":[{"name":"","type":"address","internalType":"address"},{"name":"","type":"uint256","internalType":"uint256"}],"outputs":[{"name":"","type":"uint256","internalType":"uint256"}],"stateMutability":"view"},{"type":"function","name":"withdraw","inputs":[{"name":"to","type":"address","internalType":"address"},{"name":"amount","type":"uint256","internalType":"uint256"}],"outputs":[],"stateMutability":"nonpayable"},{"type":"event","name":"Approval","inputs":[{"name":"owner","type":"address","indexed":true,"internalType":"address"},{"name":"approved","type":"address","indexed":true,"internalType":"address"},{"name":"tokenId","type":"uint256","indexed":true,"internalType":"uint256"}],"anonymous":false},{"type":"event","name":"ApprovalForAll","inputs":[{"name":"owner","type":"address","indexed":true,"internalType":"address"},{"name":"operator","type":"address","indexed":true,"internalType":"address"},{"name":"approved","type":"bool","indexed":false,"internalType":"bool"}],"anonymous":false},{"type":"event","name":"Minted","inputs":[{"name":"owner","type":"address","indexed":true,"internalType":"address"},{"name":"tokenId","type":"uint256","indexed":true,"internalType":"uint256"},{"name":"name","type":"string","indexed":false,"internalType":"string"},{"name":"imageCID","type":"string","indexed":false,"internalType":"string"},{"name":"description","type":"string","indexed":false,"internalType":"string"}],"anonymous":false},{"type":"event","name":"OwnershipTransferred","inputs":[{"name":"previousOwner","type":"address","indexed":true,"internalType":"address"},{"name":"newOwner","type":"address","indexed":true,"internalType":"address"}],"anonymous":false},{"type":"event","name":"Transfer","inputs":[{"name":"from","type":"address","indexed":true,"internalType":"address"},{"name":"to","type":"address","indexed":true,"internalType":"address"},{"name":"tokenId","type":"uint256","indexed":true,"internalType":"uint256"}],"anonymous":false},{"type":"error","name":"OwnableInvalidOwner","inputs":[{"name":"owner","type":"address","internalType":"address"}]},{"type":"error","name":"OwnableUnauthorizedAccount","inputs":[{"name":"account","type":"address","internalType":"address"}]},{"type":"error","name":"ReentrancyGuardReentrantCall","inputs":[]}],"bytecode":{"object":"0x60a060405234801562000010575f80fd5b50604051620022a0380380620022a0833981016040819052620000339162000117565b33806200005a57604051631e4fbdf760e01b81525f60048201526024015b60405180910390fd5b6200006581620000c8565b50600180556001600160a01b038116620000b65760405162461bcd60e51b81526020600482015260116024820152702832ba27232a1d103d32b9379030b2323960791b604482015260640162000051565b6001600160a01b031660805262000146565b5f80546001600160a01b038381166001600160a01b0319831681178455604051919092169283917f8be0079c531659141344cd1fd0a4f28419497f9722a3daafe3b4186f6b6457e09190a35050565b5f6020828403121562000128575f80fd5b81516001600160a01b03811681146200013f575f80fd5b9392505050565b60805161212c620001745f395f81816102c601528181610fc1015281816110a101526114bb015261212c5ff3fe608060405234801561000f575f80fd5b50600436106101bb575f3560e01c8063715018a6116100f3578063c87b56dd11610093578063e4efe3241161006e578063e4efe32414610404578063e985e9c514610427578063f2fde38b14610462578063f3fef3a314610475575f80fd5b8063c87b56dd146103cf578063d645ddf6146103e2578063d7bf81a3146103f5575f80fd5b8063a22cb465116100ce578063a22cb46514610379578063b2865e041461038c578063b88d4fde146103b4578063c4e41b22146103c7575f80fd5b8063715018a6146103415780638da5cb5b1461034957806395d89b4114610359575f80fd5b8063495410151161015e5780636352211e116101395780636352211e146102e8578063682c9a59146102fb5780636be9a6f11461030e57806370a082311461032e575f80fd5b8063495410151461027b57806352de4ee5146102a157806353bf0ce3146102c1575f80fd5b806318160ddd1161019957806318160ddd1461023e57806323b872dd14610255578063291c73c31461026857806342842e0e14610255575f80fd5b806306fdde03146101bf578063081812fc146101fe578063095ea7b314610229575b5f80fd5b60408051808201909152601181527014195d1219585b1d1a10da185a5b939195607a1b60208201525b6040516101f59190611983565b60405180910390f35b61021161020c36600461199c565b610488565b6040516001600160a01b0390911681526020016101f5565b61023c6102373660046119ce565b6104df565b005b610247600a5481565b6040519081526020016101f5565b61023c6102633660046119f6565b6105f3565b6102476102763660046119ce565b610629565b61028e61028936600461199c565b610654565b6040516101f59796959493929190611a2f565b6102b46102af366004611a98565b61082f565b6040516101f59190611ab1565b6102117f000000000000000000000000000000000000000000000000000000000000000081565b6102116102f636600461199c565b610898565b610247610309366004611b39565b6108d2565b61032161031c36600461199c565b61096d565b6040516101f59190611b78565b61024761033c366004611a98565b610bef565b61023c610c74565b5f546001600160a01b0316610211565b604080518082019091526004815263282421a760e11b60208201526101e8565b61023c610387366004611c1c565b610c87565b61024761039a366004611a98565b6001600160a01b03165f9081526004602052604090205490565b61023c6103c2366004611c51565b610d4a565b600a54610247565b6101e86103dd36600461199c565b610d82565b61023c6103f0366004611cbb565b610e2f565b610247678ac7230489e8000081565b610417610412366004611b39565b6113d8565b60405190151581526020016101f5565b610417610435366004611d4e565b6001600160a01b039182165f90815260096020908152604080832093909416825291909152205460ff1690565b61023c610470366004611a98565b611406565b61023c6104833660046119ce565b611443565b5f818152600760205260408120546001600160a01b03166104c45760405162461bcd60e51b81526004016104bb90611d7f565b60405180910390fd5b505f908152600860205260409020546001600160a01b031690565b5f818152600760205260409020546001600160a01b0316806105135760405162461bcd60e51b81526004016104bb90611d7f565b336001600160a01b038216148061054c57506001600160a01b0381165f90815260096020908152604080832033845290915290205460ff165b6105985760405162461bcd60e51b815260206004820152601e60248201527f5065744e46543a206e6f74206f776e6572206e6f7220617070726f766564000060448201526064016104bb565b5f8281526008602052604080822080546001600160a01b0319166001600160a01b0387811691821790925591518593918516917f8c5be1e5ebec7d5bd14f71427d1e84f3dd0314c0f7b2291e5b200ac8c7c3b92591a4505050565b6105fd3382611525565b6106195760405162461bcd60e51b81526004016104bb90611db6565b610624838383611615565b505050565b6004602052815f5260405f208181548110610642575f80fd5b905f5260205f20015f91509150505481565b60036020525f90815260409020805460018201805491929161067590611e07565b80601f01602080910402602001604051908101604052809291908181526020018280546106a190611e07565b80156106ec5780601f106106c3576101008083540402835291602001916106ec565b820191905f5260205f20905b8154815290600101906020018083116106cf57829003601f168201915b50505050509080600201805461070190611e07565b80601f016020809104026020016040519081016040528092919081815260200182805461072d90611e07565b80156107785780601f1061074f57610100808354040283529160200191610778565b820191905f5260205f20905b81548152906001019060200180831161075b57829003601f168201915b50505050509080600301805461078d90611e07565b80601f01602080910402602001604051908101604052809291908181526020018280546107b990611e07565b80156108045780601f106107db57610100808354040283529160200191610804565b820191905f5260205f20905b8154815290600101906020018083116107e757829003601f168201915b505050506004830154600584015460069094015492936001600160a01b039091169290915060ff1687565b6001600160a01b0381165f9081526004602090815260409182902080548351818402810184019094528084526060939283018282801561088c57602002820191905f5260205f20905b815481526020019060010190808311610878575b50505050509050919050565b5f818152600760205260408120546001600160a01b0316806108cc5760405162461bcd60e51b81526004016104bb90611d7f565b92915050565b5f600583836040516108e5929190611e3f565b9081526040519081900360200190205460ff166109445760405162461bcd60e51b815260206004820152601960248201527f5065744e46543a20696d616765434944206e6f7420757365640000000000000060448201526064016104bb565b60068383604051610956929190611e3f565b908152602001604051809103902054905092915050565b6109b46040518060e001604052805f81526020016060815260200160608152602001606081526020015f6001600160a01b031681526020015f81526020015f151581525090565b5f828152600760205260409020546001600160a01b03166109e75760405162461bcd60e51b81526004016104bb90611d7f565b60035f8381526020019081526020015f206040518060e00160405290815f8201548152602001600182018054610a1c90611e07565b80601f0160208091040260200160405190810160405280929190818152602001828054610a4890611e07565b8015610a935780601f10610a6a57610100808354040283529160200191610a93565b820191905f5260205f20905b815481529060010190602001808311610a7657829003601f168201915b50505050508152602001600282018054610aac90611e07565b80601f0160208091040260200160405190810160405280929190818152602001828054610ad890611e07565b8015610b235780601f10610afa57610100808354040283529160200191610b23565b820191905f5260205f20905b815481529060010190602001808311610b0657829003601f168201915b50505050508152602001600382018054610b3c90611e07565b80601f0160208091040260200160405190810160405280929190818152602001828054610b6890611e07565b8015610bb35780601f10610b8a57610100808354040283529160200191610bb3565b820191905f5260205f20905b815481529060010190602001808311610b9657829003601f168201915b505050918352505060048201546001600160a01b031660208201526005820154604082015260069091015460ff16151560609091015292915050565b5f6001600160a01b038216610c595760405162461bcd60e51b815260206004820152602a60248201527f5065744e46543a2062616c616e636520717565727920666f7220746865207a65604482015269726f206164647265737360b01b60648201526084016104bb565b506001600160a01b03165f9081526004602052604090205490565b610c7c611779565b610c855f6117a5565b565b336001600160a01b03831603610cdf5760405162461bcd60e51b815260206004820152601960248201527f5065744e46543a20617070726f766520746f2063616c6c65720000000000000060448201526064016104bb565b335f8181526009602090815260408083206001600160a01b03871680855290835292819020805460ff191686151590811790915590519081529192917f17307eab39ab6107e8899845ad3d59bd9653f200f220920489ca2b5937696c31910160405180910390a35050565b610d543384611525565b610d705760405162461bcd60e51b81526004016104bb90611db6565b610d7b858585611615565b5050505050565b5f818152600760205260409020546060906001600160a01b0316610df85760405162461bcd60e51b815260206004820152602760248201527f5065744e46543a2055524920717565727920666f72206e6f6e6578697374656e6044820152663a103a37b5b2b760c91b60648201526084016104bb565b5f828152600360209081526040918290209151610e19926002019101611e4e565b6040516020818303038152906040529050919050565b610e376117f4565b84610e845760405162461bcd60e51b815260206004820152601c60248201527f5065744e46543a206e616d652063616e6e6f7420626520656d7074790000000060448201526064016104bb565b82610ed15760405162461bcd60e51b815260206004820181905260248201527f5065744e46543a20696d6167654349442063616e6e6f7420626520656d70747960448201526064016104bb565b80610f2a5760405162461bcd60e51b815260206004820152602360248201527f5065744e46543a206465736372697074696f6e2063616e6e6f7420626520656d60448201526270747960e81b60648201526084016104bb565b60058484604051610f3c929190611e3f565b9081526040519081900360200190205460ff1615610f9c5760405162461bcd60e51b815260206004820152601d60248201527f5065744e46543a20696d61676543494420616c7265616479207573656400000060448201526064016104bb565b604051636eb1769f60e11b8152336004820152306024820152678ac7230489e80000907f00000000000000000000000000000000000000000000000000000000000000006001600160a01b03169063dd62ed3e90604401602060405180830381865afa15801561100e573d5f803e3d5ffd5b505050506040513d601f19601f820116820180604052508101906110329190611ed8565b10156110785760405162461bcd60e51b815260206004820152601560248201527414195d1391950e88185c1c1c9bdd9948199a5c9cdd605a1b60448201526064016104bb565b6040516323b872dd60e01b8152336004820152306024820152678ac7230489e8000060448201527f00000000000000000000000000000000000000000000000000000000000000006001600160a01b0316906323b872dd906064016020604051808303815f875af11580156110ef573d5f803e3d5ffd5b505050506040513d601f19601f820116820180604052508101906111139190611eef565b505f60025f815461112390611f1e565b91829055505f81815260076020526040812080546001600160a01b03191633179055600a80549293509061115683611f1e565b91905055506040518060e0016040528082815260200188888080601f0160208091040260200160405190810160405280939291908181526020018383808284375f92019190915250505090825250604080516020601f8901819004810282018101909252878152918101919088908890819084018382808284375f92019190915250505090825250604080516020601f8701819004810282018101909252858152918101919086908690819084018382808284375f92018290525093855250503360208085019190915242604080860191909152600160609095018590528684526003825290922084518155918401519192830191611256915082611f8f565b506040820151600282019061126b9082611f8f565b50606082015160038201906112809082611f8f565b506080820151600482810180546001600160a01b0319166001600160a01b039093169290921790915560a083015160058084019190915560c0909301516006909201805460ff191692151592909217909155335f908152602091825260408082208054600181810183559184529390922090920184905590519091906113099088908890611e3f565b908152604051908190036020018120805492151560ff1990931692909217909155819060069061133c9088908890611e3f565b90815260405190819003602001812091909155819033905f907fddf252ad1be2c89b69c2b068fc378daa952ba7f163c4a11628f55a4df523b3ef908290a480336001600160a01b03167f99f0f6da9d1f099e0b15970b7820b3bcf9f2a0c4bf372fbbf36d74350ef1a7808989898989896040516113be96959493929190612073565b60405180910390a3506113d060018055565b505050505050565b5f600583836040516113eb929190611e3f565b9081526040519081900360200190205460ff16905092915050565b61140e611779565b6001600160a01b03811661143757604051631e4fbdf760e01b81525f60048201526024016104bb565b611440816117a5565b50565b61144b611779565b6001600160a01b0382166114955760405162461bcd60e51b81526020600482015260116024820152702832ba27232a1d103d32b9379030b2323960791b60448201526064016104bb565b60405163a9059cbb60e01b81526001600160a01b038381166004830152602482018390527f0000000000000000000000000000000000000000000000000000000000000000169063a9059cbb906044016020604051808303815f875af1158015611501573d5f803e3d5ffd5b505050506040513d601f19601f820116820180604052508101906106249190611eef565b5f818152600760205260408120546001600160a01b031661159d5760405162461bcd60e51b815260206004820152602c60248201527f5065744e46543a206f70657261746f7220717565727920666f72206e6f6e657860448201526b34b9ba32b73a103a37b5b2b760a11b60648201526084016104bb565b5f828152600760205260409020546001600160a01b039081169084168114806115de57505f838152600860205260409020546001600160a01b038581169116145b8061160d57506001600160a01b038082165f9081526009602090815260408083209388168352929052205460ff165b949350505050565b5f818152600760205260409020546001600160a01b0384811691161461168b5760405162461bcd60e51b815260206004820152602560248201527f5065744e46543a207472616e736665722066726f6d20696e636f72726563742060448201526437bbb732b960d91b60648201526084016104bb565b6001600160a01b0382166116ed5760405162461bcd60e51b8152602060048201526024808201527f5065744e46543a207472616e7366657220746f20746865207a65726f206164646044820152637265737360e01b60648201526084016104bb565b5f81815260086020908152604080832080546001600160a01b0319908116909155600790925290912080549091166001600160a01b03841617905561173383838361181e565b80826001600160a01b0316846001600160a01b03167fddf252ad1be2c89b69c2b068fc378daa952ba7f163c4a11628f55a4df523b3ef60405160405180910390a4505050565b5f546001600160a01b03163314610c855760405163118cdaa760e01b81523360048201526024016104bb565b5f80546001600160a01b038381166001600160a01b0319831681178455604051919092169283917f8be0079c531659141344cd1fd0a4f28419497f9722a3daafe3b4186f6b6457e09190a35050565b60026001540361181757604051633ee5aeb560e01b815260040160405180910390fd5b6002600155565b6118288382611876565b6001600160a01b039091165f8181526004602081815260408084208054600181018255908552828520018690559483526003905292902090910180546001600160a01b031916909117905550565b6001600160a01b0382165f908152600460205260408120905b815481101561193a57828282815481106118ab576118ab6120bb565b905f5260205f2001540361192857815482906118c9906001906120cf565b815481106118d9576118d96120bb565b905f5260205f2001548282815481106118f4576118f46120bb565b905f5260205f20018190555081805480611910576119106120e2565b600190038181905f5260205f20015f9055905561193a565b8061193281611f1e565b91505061188f565b50505050565b5f81518084525f5b8181101561196457602081850181015186830182015201611948565b505f602082860101526020601f19601f83011685010191505092915050565b602081525f6119956020830184611940565b9392505050565b5f602082840312156119ac575f80fd5b5035919050565b80356001600160a01b03811681146119c9575f80fd5b919050565b5f80604083850312156119df575f80fd5b6119e8836119b3565b946020939093013593505050565b5f805f60608486031215611a08575f80fd5b611a11846119b3565b9250611a1f602085016119b3565b9150604084013590509250925092565b87815260e060208201525f611a4760e0830189611940565b8281036040840152611a598189611940565b90508281036060840152611a6d8188611940565b6001600160a01b03969096166080840152505060a0810192909252151560c090910152949350505050565b5f60208284031215611aa8575f80fd5b611995826119b3565b602080825282518282018190525f9190848201906040850190845b81811015611ae857835183529284019291840191600101611acc565b50909695505050505050565b5f8083601f840112611b04575f80fd5b50813567ffffffffffffffff811115611b1b575f80fd5b602083019150836020828501011115611b32575f80fd5b9250929050565b5f8060208385031215611b4a575f80fd5b823567ffffffffffffffff811115611b60575f80fd5b611b6c85828601611af4565b90969095509350505050565b60208152815160208201525f602083015160e06040840152611b9e610100840182611940565b90506040840151601f1980858403016060860152611bbc8383611940565b9250606086015191508085840301608086015250611bda8282611940565b91505060018060a01b0360808501511660a084015260a084015160c084015260c0840151151560e08401528091505092915050565b8015158114611440575f80fd5b5f8060408385031215611c2d575f80fd5b611c36836119b3565b91506020830135611c4681611c0f565b809150509250929050565b5f805f805f60808688031215611c65575f80fd5b611c6e866119b3565b9450611c7c602087016119b3565b935060408601359250606086013567ffffffffffffffff811115611c9e575f80fd5b611caa88828901611af4565b969995985093965092949392505050565b5f805f805f8060608789031215611cd0575f80fd5b863567ffffffffffffffff80821115611ce7575f80fd5b611cf38a838b01611af4565b90985096506020890135915080821115611d0b575f80fd5b611d178a838b01611af4565b90965094506040890135915080821115611d2f575f80fd5b50611d3c89828a01611af4565b979a9699509497509295939492505050565b5f8060408385031215611d5f575f80fd5b611d68836119b3565b9150611d76602084016119b3565b90509250929050565b6020808252601c908201527f5065744e46543a20746f6b656e20646f6573206e6f7420657869737400000000604082015260600190565b60208082526031908201527f5065744e46543a207472616e736665722063616c6c6572206973206e6f74206f6040820152701ddb995c881b9bdc88185c1c1c9bdd9959607a1b606082015260800190565b600181811c90821680611e1b57607f821691505b602082108103611e3957634e487b7160e01b5f52602260045260245ffd5b50919050565b818382375f9101908152919050565b66697066733a2f2f60c81b81525f60075f8454611e6a81611e07565b60018281168015611e825760018114611e9b57611ecb565b60ff198416888701528215158302880186019450611ecb565b885f526020805f205f5b85811015611ec05781548b82018a0152908401908201611ea5565b505050858389010194505b5092979650505050505050565b5f60208284031215611ee8575f80fd5b5051919050565b5f60208284031215611eff575f80fd5b815161199581611c0f565b634e487b7160e01b5f52601160045260245ffd5b5f60018201611f2f57611f2f611f0a565b5060010190565b634e487b7160e01b5f52604160045260245ffd5b601f821115610624575f81815260208120601f850160051c81016020861015611f705750805b601f850160051c820191505b818110156113d057828155600101611f7c565b815167ffffffffffffffff811115611fa957611fa9611f36565b611fbd81611fb78454611e07565b84611f4a565b602080601f831160018114611ff0575f8415611fd95750858301515b5f19600386901b1c1916600185901b1785556113d0565b5f85815260208120601f198616915b8281101561201e57888601518255948401946001909101908401611fff565b508582101561203b57878501515f19600388901b60f8161c191681555b5050505050600190811b01905550565b81835281816020850137505f828201602090810191909152601f909101601f19169091010190565b606081525f61208660608301888a61204b565b828103602084015261209981878961204b565b905082810360408401526120ae81858761204b565b9998505050505050505050565b634e487b7160e01b5f52603260045260245ffd5b818103818111156108cc576108cc611f0a565b634e487b7160e01b5f52603160045260245ffdfea2646970667358221220ff165916076fad680dcf100fdb8a40cf697d3a62ad0a2b7182cf8ad09cc17ebc64736f6c63430008140033","linkReferences":{}},"methodIdentifiers":{"MINT_FEE()":"d7bf81a3","approve(address,uint256)":"095ea7b3","balanceOf(address)":"70a08231","getApproved(uint256)":"081812fc","getNFTMetadata(uint256)":"6be9a6f1","getTokenIdByCID(string)":"682c9a59","getTotalSupply()":"c4e41b22","getUserNFTCount(address)":"b2865e04","getUserNFTs(address)":"52de4ee5","isApprovedForAll(address,address)":"e985e9c5","isCIDUsed(string)":"e4efe324","mint(string,string,string)":"d645ddf6","name()":"06fdde03","nftMetadata(uint256)":"49541015","owner()":"8da5cb5b","ownerOf(uint256)":"6352211e","petCoin()":"53bf0ce3","renounceOwnership()":"715018a6","safeTransferFrom(address,address,uint256)":"42842e0e","safeTransferFrom(address,address,uint256,bytes)":"b88d4fde","setApprovalForAll(address,bool)":"a22cb465","symbol()":"95d89b41","tokenURI(uint256)":"c87b56dd","totalSupply()":"18160ddd","transferFrom(address,address,uint256)":"23b872dd","transferOwnership(address)":"f2fde38b","userNFTs(address,uint256)":"291c73c3","withdraw(address,uint256)":"f3fef3a3"},"id":35}