{"abi":[{"type":"constructor","inputs":[{"name":"initialOwner","type":"address","internalType":"address"}],"stateMutability":"nonpayable"},{"type":"function","name":"HEALTH_REPORT_REWARD","inputs":[],"outputs":[{"name":"","type":"uint256","internalType":"uint256"}],"stateMutability":"view"},{"type":"function","name":"allowance","inputs":[{"name":"owner","type":"address","internalType":"address"},{"name":"spender","type":"address","internalType":"address"}],"outputs":[{"name":"","type":"uint256","internalType":"uint256"}],"stateMutability":"view"},{"type":"function","name":"approve","inputs":[{"name":"spender","type":"address","internalType":"address"},{"name":"value","type":"uint256","internalType":"uint256"}],"outputs":[{"name":"","type":"bool","internalType":"bool"}],"stateMutability":"nonpayable"},{"type":"function","name":"balanceOf","inputs":[{"name":"account","type":"address","internalType":"address"}],"outputs":[{"name":"","type":"uint256","internalType":"uint256"}],"stateMutability":"view"},{"type":"function","name":"burn","inputs":[{"name":"amount","type":"uint256","internalType":"uint256"}],"outputs":[],"stateMutability":"nonpayable"},{"type":"function","name":"burnFrom","inputs":[{"name":"from","type":"address","internalType":"address"},{"name":"amount","type":"uint256","internalType":"uint256"}],"outputs":[],"stateMutability":"nonpayable"},{"type":"function","name":"decimals","inputs":[],"outputs":[{"name":"","type":"uint8","internalType":"uint8"}],"stateMutability":"view"},{"type":"function","name":"healthRecordContract","inputs":[],"outputs":[{"name":"","type":"address","internalType":"address"}],"stateMutability":"view"},{"type":"function","name":"mint","inputs":[{"name":"to","type":"address","internalType":"address"},{"name":"amount","type":"uint256","internalType":"uint256"}],"outputs":[],"stateMutability":"nonpayable"},{"type":"function","name":"name","inputs":[],"outputs":[{"name":"","type":"string","internalType":"string"}],"stateMutability":"view"},{"type":"function","name":"owner","inputs":[],"outputs":[{"name":"","type":"address","internalType":"address"}],"stateMutability":"view"},{"type":"function","name":"renounceOwnership","inputs":[],"outputs":[],"stateMutability":"nonpayable"},{"type":"function","name":"rewardUser","inputs":[{"name":"user","type":"address","internalType":"address"}],"outputs":[],"stateMutability":"nonpayable"},{"type":"function","name":"setHealthRecordContract","inputs":[{"name":"_healthRecordContract","type":"address","internalType":"address"}],"outputs":[],"stateMutability":"nonpayable"},{"type":"function","name":"symbol","inputs":[],"outputs":[{"name":"","type":"string","internalType":"string"}],"stateMutability":"view"},{"type":"function","name":"totalSupply","inputs":[],"outputs":[{"name":"","type":"uint256","internalType":"uint256"}],"stateMutability":"view"},{"type":"function","name":"transfer","inputs":[{"name":"to","type":"address","internalType":"address"},{"name":"value","type":"uint256","internalType":"uint256"}],"outputs":[{"name":"","type":"bool","internalType":"bool"}],"stateMutability":"nonpayable"},{"type":"function","name":"transferFrom","inputs":[{"name":"from","type":"address","internalType":"address"},{"name":"to","type":"address","internalType":"address"},{"name":"value","type":"uint256","internalType":"uint256"}],"outputs":[{"name":"","type":"bool","internalType":"bool"}],"stateMutability":"nonpayable"},{"type":"function","name":"transferOwnership","inputs":[{"name":"newOwner","type":"address","internalType":"address"}],"outputs":[],"stateMutability":"nonpayable"},{"type":"event","name":"Approval","inputs":[{"name":"owner","type":"address","indexed":true,"internalType":"address"},{"name":"spender","type":"address","indexed":true,"internalType":"address"},{"name":"value","type":"uint256","indexed":false,"internalType":"uint256"}],"anonymous":false},{"type":"event","name":"HealthRecordContractUpdated","inputs":[{"name":"newContract","type":"address","indexed":true,"internalType":"address"}],"anonymous":false},{"type":"event","name":"HealthReportReward","inputs":[{"name":"user","type":"address","indexed":true,"internalType":"address"},{"name":"amount","type":"uint256","indexed":false,"internalType":"uint256"}],"anonymous":false},{"type":"event","name":"OwnershipTransferred","inputs":[{"name":"previousOwner","type":"address","indexed":true,"internalType":"address"},{"name":"newOwner","type":"address","indexed":true,"internalType":"address"}],"anonymous":false},{"type":"event","name":"Transfer","inputs":[{"name":"from","type":"address","indexed":true,"internalType":"address"},{"name":"to","type":"address","indexed":true,"internalType":"address"},{"name":"value","type":"uint256","indexed":false,"internalType":"uint256"}],"anonymous":false},{"type":"error","name":"ERC20InsufficientAllowance","inputs":[{"name":"spender","type":"address","internalType":"address"},{"name":"allowance","type":"uint256","internalType":"uint256"},{"name":"needed","type":"uint256","internalType":"uint256"}]},{"type":"error","name":"ERC20InsufficientBalance","inputs":[{"name":"sender","type":"address","internalType":"address"},{"name":"balance","type":"uint256","internalType":"uint256"},{"name":"needed","type":"uint256","internalType":"uint256"}]},{"type":"error","name":"ERC20InvalidApprover","inputs":[{"name":"approver","type":"address","internalType":"address"}]},{"type":"error","name":"ERC20InvalidReceiver","inputs":[{"name":"receiver","type":"address","internalType":"address"}]},{"type":"error","name":"ERC20InvalidSender","inputs":[{"name":"sender","type":"address","internalType":"address"}]},{"type":"error","name":"ERC20InvalidSpender","inputs":[{"name":"spender","type":"address","internalType":"address"}]},{"type":"error","name":"OwnableInvalidOwner","inputs":[{"name":"owner","type":"address","internalType":"address"}]},{"type":"error","name":"OwnableUnauthorizedAccount","inputs":[{"name":"account","type":"address","internalType":"address"}]}],"bytecode":{"object":"0x608060405234801562000010575f80fd5b50604051620011af380380620011af8339810160408190526200003391620002b9565b80604051806040016040528060078152602001662832ba21b7b4b760c91b8152506040518060400160405280600381526020016250544360e81b815250816003908162000081919062000388565b50600462000090828262000388565b5050506001600160a01b038116620000c257604051631e4fbdf760e01b81525f60048201526024015b60405180910390fd5b620000cd81620000fd565b50620000f681620000e16012600a6200055f565b620000f090620f42406200056f565b6200014e565b506200059f565b600580546001600160a01b038381166001600160a01b0319831681179093556040519116919082907f8be0079c531659141344cd1fd0a4f28419497f9722a3daafe3b4186f6b6457e0905f90a35050565b6001600160a01b038216620001795760405163ec442f0560e01b81525f6004820152602401620000b9565b620001865f83836200018a565b5050565b6001600160a01b038316620001b8578060025f828254620001ac919062000589565b909155506200022a9050565b6001600160a01b0383165f90815260208190526040902054818110156200020c5760405163391434e360e21b81526001600160a01b03851660048201526024810182905260448101839052606401620000b9565b6001600160a01b0384165f9081526020819052604090209082900390555b6001600160a01b038216620002485760028054829003905562000266565b6001600160a01b0382165f9081526020819052604090208054820190555b816001600160a01b0316836001600160a01b03167fddf252ad1be2c89b69c2b068fc378daa952ba7f163c4a11628f55a4df523b3ef83604051620002ac91815260200190565b60405180910390a3505050565b5f60208284031215620002ca575f80fd5b81516001600160a01b0381168114620002e1575f80fd5b9392505050565b634e487b7160e01b5f52604160045260245ffd5b600181811c908216806200031157607f821691505b6020821081036200033057634e487b7160e01b5f52602260045260245ffd5b50919050565b601f82111562000383575f81815260208120601f850160051c810160208610156200035e5750805b601f850160051c820191505b818110156200037f578281556001016200036a565b5050505b505050565b81516001600160401b03811115620003a457620003a4620002e8565b620003bc81620003b58454620002fc565b8462000336565b602080601f831160018114620003f2575f8415620003da5750858301515b5f19600386901b1c1916600185901b1785556200037f565b5f85815260208120601f198616915b82811015620004225788860151825594840194600190910190840162000401565b50858210156200044057878501515f19600388901b60f8161c191681555b5050505050600190811b01905550565b634e487b7160e01b5f52601160045260245ffd5b600181815b80851115620004a457815f190482111562000488576200048862000450565b808516156200049657918102915b93841c939080029062000469565b509250929050565b5f82620004bc5750600162000559565b81620004ca57505f62000559565b8160018114620004e35760028114620004ee576200050e565b600191505062000559565b60ff84111562000502576200050262000450565b50506001821b62000559565b5060208310610133831016604e8410600b841016171562000533575081810a62000559565b6200053f838362000464565b805f190482111562000555576200055562000450565b0290505b92915050565b5f620002e160ff841683620004ac565b808202811582820484141762000559576200055962000450565b8082018082111562000559576200055962000450565b610c0280620005ad5f395ff3fe608060405234801561000f575f80fd5b506004361061011c575f3560e01c806370a08231116100a9578063a6afd7db1161006e578063a6afd7db1461024f578063a9059cbb14610262578063dd62ed3e14610275578063f2fde38b146102ad578063f3697942146102c0575f80fd5b806370a08231146101df578063715018a61461020757806379cc67901461020f5780638da5cb5b1461022257806395d89b4114610247575f80fd5b80631b499c2c116100ef5780631b499c2c1461018257806323b872dd14610197578063313ce567146101aa57806340c10f19146101b957806342966c68146101cc575f80fd5b806305eeb3b41461012057806306fdde0314610142578063095ea7b31461015757806318160ddd1461017a575b5f80fd5b61012f678ac7230489e8000081565b6040519081526020015b60405180910390f35b61014a6102d3565b6040516101399190610a46565b61016a610165366004610aac565b610363565b6040519015158152602001610139565b60025461012f565b610195610190366004610ad4565b61037c565b005b61016a6101a5366004610af4565b610432565b60405160128152602001610139565b6101956101c7366004610aac565b610455565b6101956101da366004610b2d565b6104cc565b61012f6101ed366004610ad4565b6001600160a01b03165f9081526020819052604090205490565b6101956104d9565b61019561021d366004610aac565b6104ec565b6005546001600160a01b03165b6040516001600160a01b039091168152602001610139565b61014a610501565b61019561025d366004610ad4565b610510565b61016a610270366004610aac565b610636565b61012f610283366004610b44565b6001600160a01b039182165f90815260016020908152604080832093909416825291909152205490565b6101956102bb366004610ad4565b610643565b60065461022f906001600160a01b031681565b6060600380546102e290610b75565b80601f016020809104026020016040519081016040528092919081815260200182805461030e90610b75565b80156103595780601f1061033057610100808354040283529160200191610359565b820191905f5260205f20905b81548152906001019060200180831161033c57829003601f168201915b5050505050905090565b5f3361037081858561067d565b60019150505b92915050565b61038461068f565b6001600160a01b0381166103e95760405162461bcd60e51b815260206004820152602160248201527f506574436f696e3a20496e76616c696420636f6e7472616374206164647265736044820152607360f81b60648201526084015b60405180910390fd5b600680546001600160a01b0319166001600160a01b0383169081179091556040517f9456c9d644152141247c96f5c453cc78f65fb265215714930189251ee7130ef2905f90a250565b5f3361043f8582856106bc565b61044a858585610738565b506001949350505050565b61045d61068f565b6001600160a01b0382166104be5760405162461bcd60e51b815260206004820152602260248201527f506574436f696e3a20496e76616c696420726563697069656e74206164647265604482015261737360f01b60648201526084016103e0565b6104c88282610795565b5050565b6104d633826107c9565b50565b6104e161068f565b6104ea5f6107fd565b565b6104f78233836106bc565b6104c882826107c9565b6060600480546102e290610b75565b6006546001600160a01b031633146105805760405162461bcd60e51b815260206004820152602d60248201527f506574436f696e3a204f6e6c79206865616c7468207265636f726420636f6e7460448201526c1c9858dd0818d85b8818d85b1b609a1b60648201526084016103e0565b6001600160a01b0381166105d65760405162461bcd60e51b815260206004820152601d60248201527f506574436f696e3a20496e76616c69642075736572206164647265737300000060448201526064016103e0565b6105e881678ac7230489e80000610795565b806001600160a01b03167f240d3bf795cf6a858f28ce4090b2d2338bdd8817d936afe25dd9b637a9a20bb4678ac7230489e8000060405161062b91815260200190565b60405180910390a250565b5f33610370818585610738565b61064b61068f565b6001600160a01b03811661067457604051631e4fbdf760e01b81525f60048201526024016103e0565b6104d6816107fd565b61068a838383600161084e565b505050565b6005546001600160a01b031633146104ea5760405163118cdaa760e01b81523360048201526024016103e0565b6001600160a01b038381165f908152600160209081526040808320938616835292905220545f19811015610732578181101561072457604051637dc7a0d960e11b81526001600160a01b038416600482015260248101829052604481018390526064016103e0565b61073284848484035f61084e565b50505050565b6001600160a01b03831661076157604051634b637e8f60e11b81525f60048201526024016103e0565b6001600160a01b03821661078a5760405163ec442f0560e01b81525f60048201526024016103e0565b61068a838383610920565b6001600160a01b0382166107be5760405163ec442f0560e01b81525f60048201526024016103e0565b6104c85f8383610920565b6001600160a01b0382166107f257604051634b637e8f60e11b81525f60048201526024016103e0565b6104c8825f83610920565b600580546001600160a01b038381166001600160a01b0319831681179093556040519116919082907f8be0079c531659141344cd1fd0a4f28419497f9722a3daafe3b4186f6b6457e0905f90a35050565b6001600160a01b0384166108775760405163e602df0560e01b81525f60048201526024016103e0565b6001600160a01b0383166108a057604051634a1406b160e11b81525f60048201526024016103e0565b6001600160a01b038085165f908152600160209081526040808320938716835292905220829055801561073257826001600160a01b0316846001600160a01b03167f8c5be1e5ebec7d5bd14f71427d1e84f3dd0314c0f7b2291e5b200ac8c7c3b9258460405161091291815260200190565b60405180910390a350505050565b6001600160a01b03831661094a578060025f82825461093f9190610bad565b909155506109ba9050565b6001600160a01b0383165f908152602081905260409020548181101561099c5760405163391434e360e21b81526001600160a01b038516600482015260248101829052604481018390526064016103e0565b6001600160a01b0384165f9081526020819052604090209082900390555b6001600160a01b0382166109d6576002805482900390556109f4565b6001600160a01b0382165f9081526020819052604090208054820190555b816001600160a01b0316836001600160a01b03167fddf252ad1be2c89b69c2b068fc378daa952ba7f163c4a11628f55a4df523b3ef83604051610a3991815260200190565b60405180910390a3505050565b5f6020808352835180828501525f5b81811015610a7157858101830151858201604001528201610a55565b505f604082860101526040601f19601f8301168501019250505092915050565b80356001600160a01b0381168114610aa7575f80fd5b919050565b5f8060408385031215610abd575f80fd5b610ac683610a91565b946020939093013593505050565b5f60208284031215610ae4575f80fd5b610aed82610a91565b9392505050565b5f805f60608486031215610b06575f80fd5b610b0f84610a91565b9250610b1d60208501610a91565b9150604084013590509250925092565b5f60208284031215610b3d575f80fd5b5035919050565b5f8060408385031215610b55575f80fd5b610b5e83610a91565b9150610b6c60208401610a91565b90509250929050565b600181811c90821680610b8957607f821691505b602082108103610ba757634e487b7160e01b5f52602260045260245ffd5b50919050565b8082018082111561037657634e487b7160e01b5f52601160045260245ffdfea264697066735822122064d07c6f1ffd8321566f3cf0f7f497a43400a57ed3e65384c253e28e4d86c52464736f6c63430008140033","linkReferences":{}},"methodIdentifiers":{"HEALTH_REPORT_REWARD()":"05eeb3b4","allowance(address,address)":"dd62ed3e","approve(address,uint256)":"095ea7b3","balanceOf(address)":"70a08231","burn(uint256)":"42966c68","burnFrom(address,uint256)":"79cc6790","decimals()":"313ce567","healthRecordContract()":"f3697942","mint(address,uint256)":"40c10f19","name()":"06fdde03","owner()":"8da5cb5b","renounceOwnership()":"715018a6","rewardUser(address)":"a6afd7db","setHealthRecordContract(address)":"1b499c2c","symbol()":"95d89b41","totalSupply()":"18160ddd","transfer(address,uint256)":"a9059cbb","transferFrom(address,address,uint256)":"23b872dd","transferOwnership(address)":"f2fde38b"},"id":51}