{"abi":[{"type":"constructor","inputs":[{"name":"nftAddr","type":"address","internalType":"address"},{"name":"petCoinAddr","type":"address","internalType":"address"}],"stateMutability":"nonpayable"},{"type":"function","name":"buy","inputs":[{"name":"tokenId","type":"uint256","internalType":"uint256"}],"outputs":[],"stateMutability":"nonpayable"},{"type":"function","name":"cancel","inputs":[{"name":"tokenId","type":"uint256","internalType":"uint256"}],"outputs":[],"stateMutability":"nonpayable"},{"type":"function","name":"list","inputs":[{"name":"tokenId","type":"uint256","internalType":"uint256"},{"name":"price","type":"uint256","internalType":"uint256"}],"outputs":[],"stateMutability":"nonpayable"},{"type":"function","name":"listings","inputs":[{"name":"","type":"uint256","internalType":"uint256"}],"outputs":[{"name":"seller","type":"address","internalType":"address"},{"name":"price","type":"uint256","internalType":"uint256"}],"stateMutability":"view"},{"type":"function","name":"nft","inputs":[],"outputs":[{"name":"","type":"address","internalType":"contract IERC721"}],"stateMutability":"view"},{"type":"function","name":"petCoin","inputs":[],"outputs":[{"name":"","type":"address","internalType":"contract PetCoin"}],"stateMutability":"view"},{"type":"event","name":"Canceled","inputs":[{"name":"seller","type":"address","indexed":true,"internalType":"address"},{"name":"tokenId","type":"uint256","indexed":true,"internalType":"uint256"}],"anonymous":false},{"type":"event","name":"Listed","inputs":[{"name":"seller","type":"address","indexed":true,"internalType":"address"},{"name":"tokenId","type":"uint256","indexed":true,"internalType":"uint256"},{"name":"price","type":"uint256","indexed":false,"internalType":"uint256"}],"anonymous":false},{"type":"event","name":"Purchased","inputs":[{"name":"buyer","type":"address","indexed":true,"internalType":"address"},{"name":"tokenId","type":"uint256","indexed":true,"internalType":"uint256"},{"name":"price","type":"uint256","indexed":false,"internalType":"uint256"}],"anonymous":false},{"type":"error","name":"ReentrancyGuardReentrantCall","inputs":[]}],"bytecode":{"object":"0x60c060405234801561000f575f80fd5b5060405161097338038061097383398101604081905261002e916100c2565b60015f556001600160a01b0382161580159061005257506001600160a01b03811615155b6100905760405162461bcd60e51b8152600401610087906020808252600490820152637a65726f60e01b604082015260600190565b60405180910390fd5b6001600160a01b039182166080521660a0526100f3565b80516001600160a01b03811681146100bd575f80fd5b919050565b5f80604083850312156100d3575f80fd5b6100dc836100a7565b91506100ea602084016100a7565b90509250929050565b60805160a05161083e6101355f395f818160d50152818161050101526105e801525f8181607e0152818161023a015281816103400152610683015261083e5ff3fe608060405234801561000f575f80fd5b5060043610610060575f3560e01c806340e58ee51461006457806347ccca021461007957806350fd7367146100bd57806353bf0ce3146100d0578063d96a094a146100f7578063de74e57b1461010a575b5f80fd5b61007761007236600461076e565b61015b565b005b6100a07f000000000000000000000000000000000000000000000000000000000000000081565b6040516001600160a01b0390911681526020015b60405180910390f35b6100776100cb366004610785565b61021a565b6100a07f000000000000000000000000000000000000000000000000000000000000000081565b61007761010536600461076e565b610470565b61013c61011836600461076e565b600160208190525f918252604090912080549101546001600160a01b039091169082565b604080516001600160a01b0390931683526020830191909152016100b4565b5f81815260016020818152604092839020835180850190945280546001600160a01b03168085529201549083015233146101c95760405162461bcd60e51b815260206004820152600a6024820152693737ba1039b2b63632b960b11b60448201526064015b60405180910390fd5b5f82815260016020819052604080832080546001600160a01b031916815590910182905551839133917ff3a6ef5718c05d9183af076f5753197b68b04552a763c34796637d6134bdd0f29190a35050565b6040516331a9108f60e11b81526004810183905233906001600160a01b037f00000000000000000000000000000000000000000000000000000000000000001690636352211e90602401602060405180830381865afa15801561027f573d5f803e3d5ffd5b505050506040513d601f19601f820116820180604052508101906102a391906107a5565b6001600160a01b0316146102e55760405162461bcd60e51b81526020600482015260096024820152683737ba1037bbb732b960b91b60448201526064016101c0565b5f81116103205760405162461bcd60e51b815260206004820152600960248201526807072696365203d20360bc1b60448201526064016101c0565b60405163020604bf60e21b81526004810183905230906001600160a01b037f0000000000000000000000000000000000000000000000000000000000000000169063081812fc90602401602060405180830381865afa158015610385573d5f803e3d5ffd5b505050506040513d601f19601f820116820180604052508101906103a991906107a5565b6001600160a01b0316146103f35760405162461bcd60e51b8152602060048201526011602482015270185c1c1c9bdd994813919508199a5c9cdd607a1b60448201526064016101c0565b6040805180820182523380825260208083018581525f878152600180845290869020945185546001600160a01b0319166001600160a01b03909116178555905193019290925591518381528492917f6e16e8064e3c8254cef11e01e152416398602d7e8785f743f1c2f93a9a15ff35910160405180910390a35050565b610478610746565b5f81815260016020818152604092839020835180850190945280546001600160a01b03168452909101549082018190526104e15760405162461bcd60e51b815260206004820152600a6024820152691b9bdd081b1a5cdd195960b21b60448201526064016101c0565b6020810151604051636eb1769f60e11b81523360048201523060248201527f00000000000000000000000000000000000000000000000000000000000000006001600160a01b03169063dd62ed3e90604401602060405180830381865afa15801561054e573d5f803e3d5ffd5b505050506040513d601f19601f8201168201806040525081019061057291906107d2565b10156105b45760405162461bcd60e51b8152602060048201526011602482015270185c1c1c9bdd9948141510c8199a5c9cdd607a1b60448201526064016101c0565b805160208201516040516323b872dd60e01b81523360048201526001600160a01b03928316602482015260448101919091527f0000000000000000000000000000000000000000000000000000000000000000909116906323b872dd906064016020604051808303815f875af1158015610630573d5f803e3d5ffd5b505050506040513d601f19601f8201168201806040525081019061065491906107e9565b508051604051632142170760e11b81526001600160a01b039182166004820152336024820152604481018490527f0000000000000000000000000000000000000000000000000000000000000000909116906342842e0e906064015f604051808303815f87803b1580156106c6575f80fd5b505af11580156106d8573d5f803e3d5ffd5b5050505f83815260016020818152604080842080546001600160a01b03191681559092019290925583820151905190815284925033917ff761777482b4b40d2bcc0d050cfba6829900a2d8b3484bd0244ec0feeb3db504910160405180910390a35061074360015f55565b50565b60025f540361076857604051633ee5aeb560e01b815260040160405180910390fd5b60025f55565b5f6020828403121561077e575f80fd5b5035919050565b5f8060408385031215610796575f80fd5b50508035926020909101359150565b5f602082840312156107b5575f80fd5b81516001600160a01b03811681146107cb575f80fd5b9392505050565b5f602082840312156107e2575f80fd5b5051919050565b5f602082840312156107f9575f80fd5b815180151581146107cb575f80fdfea26469706673582212206a44543906124abc40e8e41fb70c6713e47855d74bb78916ffe3f14a585c7d8564736f6c63430008140033","linkReferences":{}},"methodIdentifiers":{"buy(uint256)":"d96a094a","cancel(uint256)":"40e58ee5","list(uint256,uint256)":"50fd7367","listings(uint256)":"de74e57b","nft()":"47ccca02","petCoin()":"53bf0ce3"},"id":53}