{"abi":[{"type":"constructor","inputs":[{"name":"_petCoinAddress","type":"address","internalType":"address"}],"stateMutability":"nonpayable"},{"type":"function","name":"allReports","inputs":[{"name":"","type":"uint256","internalType":"uint256"}],"outputs":[{"name":"petId","type":"uint256","internalType":"uint256"},{"name":"reportType","type":"string","internalType":"string"},{"name":"reportName","type":"string","internalType":"string"},{"name":"ipfsHash","type":"string","internalType":"string"},{"name":"summary","type":"string","internalType":"string"},{"name":"uploader","type":"address","internalType":"address"},{"name":"timestamp","type":"uint256","internalType":"uint256"},{"name":"reportIndex","type":"uint256","internalType":"uint256"}],"stateMutability":"view"},{"type":"function","name":"getContractStats","inputs":[],"outputs":[{"name":"totalReportsCount","type":"uint256","internalType":"uint256"},{"name":"petCoinAddress","type":"address","internalType":"address"}],"stateMutability":"view"},{"type":"function","name":"getLatestReports","inputs":[{"name":"count","type":"uint256","internalType":"uint256"}],"outputs":[{"name":"","type":"tuple[]","internalType":"struct HealthReport.Report[]","components":[{"name":"petId","type":"uint256","internalType":"uint256"},{"name":"reportType","type":"string","internalType":"string"},{"name":"reportName","type":"string","internalType":"string"},{"name":"ipfsHash","type":"string","internalType":"string"},{"name":"summary","type":"string","internalType":"string"},{"name":"uploader","type":"address","internalType":"address"},{"name":"timestamp","type":"uint256","internalType":"uint256"},{"name":"reportIndex","type":"uint256","internalType":"uint256"}]}],"stateMutability":"view"},{"type":"function","name":"getReport","inputs":[{"name":"reportId","type":"uint256","internalType":"uint256"}],"outputs":[{"name":"","type":"tuple","internalType":"struct HealthReport.Report","components":[{"name":"petId","type":"uint256","internalType":"uint256"},{"name":"reportType","type":"string","internalType":"string"},{"name":"reportName","type":"string","internalType":"string"},{"name":"ipfsHash","type":"string","internalType":"string"},{"name":"summary","type":"string","internalType":"string"},{"name":"uploader","type":"address","internalType":"address"},{"name":"timestamp","type":"uint256","internalType":"uint256"},{"name":"reportIndex","type":"uint256","internalType":"uint256"}]}],"stateMutability":"view"},{"type":"function","name":"getReports","inputs":[{"name":"petId","type":"uint256","internalType":"uint256"}],"outputs":[{"name":"","type":"tuple[]","internalType":"struct HealthReport.Report[]","components":[{"name":"petId","type":"uint256","internalType":"uint256"},{"name":"reportType","type":"string","internalType":"string"},{"name":"reportName","type":"string","internalType":"string"},{"name":"ipfsHash","type":"string","internalType":"string"},{"name":"summary","type":"string","internalType":"string"},{"name":"uploader","type":"address","internalType":"address"},{"name":"timestamp","type":"uint256","internalType":"uint256"},{"name":"reportIndex","type":"uint256","internalType":"uint256"}]}],"stateMutability":"view"},{"type":"function","name":"getReportsByUploader","inputs":[{"name":"uploader","type":"address","internalType":"address"}],"outputs":[{"name":"","type":"tuple[]","internalType":"struct HealthReport.Report[]","components":[{"name":"petId","type":"uint256","internalType":"uint256"},{"name":"reportType","type":"string","internalType":"string"},{"name":"reportName","type":"string","internalType":"string"},{"name":"ipfsHash","type":"string","internalType":"string"},{"name":"summary","type":"string","internalType":"string"},{"name":"uploader","type":"address","internalType":"address"},{"name":"timestamp","type":"uint256","internalType":"uint256"},{"name":"reportIndex","type":"uint256","internalType":"uint256"}]}],"stateMutability":"view"},{"type":"function","name":"getUserStats","inputs":[{"name":"user","type":"address","internalType":"address"}],"outputs":[{"name":"reportCount","type":"uint256","internalType":"uint256"},{"name":"reportIds","type":"uint256[]","internalType":"uint256[]"}],"stateMutability":"view"},{"type":"function","name":"petCoin","inputs":[],"outputs":[{"name":"","type":"address","internalType":"contract PetCoin"}],"stateMutability":"view"},{"type":"function","name":"petReports","inputs":[{"name":"","type":"uint256","internalType":"uint256"},{"name":"","type":"uint256","internalType":"uint256"}],"outputs":[{"name":"petId","type":"uint256","internalType":"uint256"},{"name":"reportType","type":"string","internalType":"string"},{"name":"reportName","type":"string","internalType":"string"},{"name":"ipfsHash","type":"string","internalType":"string"},{"name":"summary","type":"string","internalType":"string"},{"name":"uploader","type":"address","internalType":"address"},{"name":"timestamp","type":"uint256","internalType":"uint256"},{"name":"reportIndex","type":"uint256","internalType":"uint256"}],"stateMutability":"view"},{"type":"function","name":"totalReports","inputs":[],"outputs":[{"name":"","type":"uint256","internalType":"uint256"}],"stateMutability":"view"},{"type":"function","name":"updatePetCoinContract","inputs":[{"name":"newPetCoinAddress","type":"address","internalType":"address"}],"outputs":[],"stateMutability":"nonpayable"},{"type":"function","name":"uploadReport","inputs":[{"name":"petId","type":"uint256","internalType":"uint256"},{"name":"reportType","type":"string","internalType":"string"},{"name":"reportName","type":"string","internalType":"string"},{"name":"ipfsHash","type":"string","internalType":"string"},{"name":"summary","type":"string","internalType":"string"}],"outputs":[],"stateMutability":"nonpayable"},{"type":"function","name":"uploaderReports","inputs":[{"name":"","type":"address","internalType":"address"},{"name":"","type":"uint256","internalType":"uint256"}],"outputs":[{"name":"","type":"uint256","internalType":"uint256"}],"stateMutability":"view"},{"type":"function","name":"userReportCount","inputs":[{"name":"","type":"address","internalType":"address"}],"outputs":[{"name":"","type":"uint256","internalType":"uint256"}],"stateMutability":"view"},{"type":"event","name":"PetCoinContractUpdated","inputs":[{"name":"newContract","type":"address","indexed":true,"internalType":"address"}],"anonymous":false},{"type":"event","name":"PetCoinRewarded","inputs":[{"name":"user","type":"address","indexed":true,"internalType":"address"},{"name":"amount","type":"uint256","indexed":false,"internalType":"uint256"},{"name":"reportId","type":"uint256","indexed":true,"internalType":"uint256"}],"anonymous":false},{"type":"event","name":"ReportUploaded","inputs":[{"name":"reportId","type":"uint256","indexed":true,"internalType":"uint256"},{"name":"petId","type":"uint256","indexed":true,"internalType":"uint256"},{"name":"uploader","type":"address","indexed":true,"internalType":"address"},{"name":"reportType","type":"string","indexed":false,"internalType":"string"},{"name":"reportName","type":"string","indexed":false,"internalType":"string"},{"name":"ipfsHash","type":"string","indexed":false,"internalType":"string"},{"name":"timestamp","type":"uint256","indexed":false,"internalType":"uint256"}],"anonymous":false}],"bytecode":{"object":"0x6080346100cc57601f61173338819003918201601f19168301916001600160401b038311848410176100d0578084926020946040528339810103126100cc57516001600160a01b038116908190036100cc578015610079575f80546001600160a01b03191691909117905560405161164e90816100e58239f35b60405162461bcd60e51b815260206004820152602560248201527f4865616c74685265706f72743a20496e76616c696420506574436f696e206164604482015264647265737360d81b6064820152608490fd5b5f80fd5b634e487b7160e01b5f52604160045260245ffdfe6080806040526004361015610012575f80fd5b5f90813560e01c9081633a321d7814610db9575080634e43603a14610cdb5780634e7f9b1914610c3257806353bf0ce314610c0b57806363d1f25114610bda5780636ccdb77814610b545780637c317c08146103565780637e01cec91461031d578063b00eba4f146102ff578063ba942e22146102a8578063c4c6002b1461027c578063dfe6b5d61461024c578063f79f1572146101b55763fd31af08146100b8575f80fd5b346101b257602090816003193601126101b2576001600160a01b036100db610e5e565b16801561015e578152600382526100f460408220611486565b906100ff8251611511565b92815b835181101561014c57806101196101479286611560565b5184526004835261012c60408520611407565b6101368288611560565b526101418187611560565b50611281565b610102565b6040518061015a87826110d4565b0390f35b60405162461bcd60e51b815260048101849052602660248201527f4865616c74685265706f72743a20496e76616c69642075706c6f61646572206160448201526564647265737360d01b6064820152608490fd5b80fd5b50346101b25760403660031901126101b25760243560043582526002602052604082208054821015610248576101eb925061118b565b50805461015a6101fd60018401610fc5565b9261020a60028201610fc5565b9061021760038201610fc5565b61022360048301610fc5565b60018060a01b0360058401541691600760068501549401549460405198899889611066565b8280fd5b50346101b257806003193601126101b2576001549054604080519283526001600160a01b03909116602083015290f35b50346101b25760203660031901126101b25761015a61029c600435611574565b604051918291826110d4565b50346101b25760403660031901126101b2576102c2610e5e565b6001600160a01b03168152600360205260408120805460243592908310156101b25760206102f08484611162565b90549060031b1c604051908152f35b50346101b257806003193601126101b2576020600154604051908152f35b50346101b25760203660031901126101b2576020906040906001600160a01b03610345610e5e565b168152600583522054604051908152f35b50346101b25760a03660031901126101b2576024356001600160401b03811161089b57610387903690600401611135565b6044356001600160401b038111610b50576103a6903690600401611135565b906064356001600160401b038111610b4c576103c6903690600401611135565b9190926084356001600160401b038111610b48576103e8903690600401611135565b906103f660043515156111a4565b61040c61040436898b6111f0565b511515611235565b61041a6104043685876111f0565b6104286104043687896111f0565b6104366104043684846111f0565b610492610444600154611281565b91826001556040519361045685610f74565b6004358552610466368b8d6111f0565b60208601526104763687896111f0565b604086015261048636898b6111f0565b606086015236916111f0565b60808301523360a08301524260c08301528060e08301528852600460205260408820908051825560208101518051906001600160401b0382116109c95781906104eb826104e26001880154610f3c565b600188016112a3565b602090601f8311600114610ada578c92610acf575b50508160011b915f199060031b1c19161760018301555b60408101518051906001600160401b0382116109c9578190610549826105406002880154610f3c565b600288016112a3565b602090601f8311600114610a61578c92610a56575b50508160011b915f199060031b1c19161760028301555b60608101518051906001600160401b0382116109c95781906105a78261059e6003880154610f3c565b600388016112a3565b602090601f83116001146109e8578c926109dd575b50508160011b915f199060031b1c19161760038301555b60808101518051906001600160401b0382116109c957610603826105fa6004870154610f3c565b600487016112a3565b6020908b601f8411600114610957579260079492819260e0959261094c575b50508160011b915f199060031b1c19161760048501555b60018060a01b0360a08201511660058501906bffffffffffffffffffffffff60a01b82541617905560c0810151600685015501519101556004358752600260205260408720600154885260046020526040882090805490600160401b82101561089f57906106ac9160018201815561118b565b919091610938578082036108b3575b505033875260036020526040872060015490805490600160401b82101561089f57916106f78261075998979694600161074b9795018155611162565b819291549060031b91821b915f19901b19161790553389526005602052604089206107228154611281565b905561073d600154986040519860808a5260808a01916113d0565b9187830360208901526113d0565b9184830360408601526113d0565b426060830152827ff3b1e2456ff6231c3ab6f023fd35be8a9632e03c8007d957029009af6eb99011339380600435940390a4815482906001600160a01b0316803b1561089b57819060246040518094819363a6afd7db60e01b83523360048401525af1908161086c575b506107cc575080f35b815460405163017baced60e21b815290602090829060049082906001600160a01b03165afa90811561086157839161082f575b506040519081527fd1b02761d5c64e5c68f112462da38de11b662b3e31cef275c2059910fd62ea7560203392a380f35b90506020813d602011610859575b8161084a60209383610fa4565b8101031261024857515f6107ff565b3d915061083d565b6040513d85823e3d90fd5b6001600160401b03819492941161088757604052915f6107c3565b634e487b7160e01b82526041600452602482fd5b5080fd5b634e487b7160e01b8a52604160045260248afd5b60078181925484556108cb60018201600186016112f6565b6108db60028201600286016112f6565b6108eb60038201600386016112f6565b6108fb60048201600486016112f6565b6005840160018060a01b036005830154166bffffffffffffffffffffffff60a01b8254161790556006810154600685015501549101555f806106bb565b634e487b7160e01b89526004899052602489fd5b015190505f80610622565b5090600485018c5260208c20918c5b601f19851681106109b15750926007949260019260e09583601f19811610610999575b505050811b016004850155610639565b01515f1960f88460031b161c191690555f8080610989565b91926020600181928685015181550194019201610966565b634e487b7160e01b8b52604160045260248bfd5b015190505f806105bc565b9250600385018c5260208c20908c935b601f1984168510610a3b576001945083601f19811610610a23575b505050811b0160038301556105d3565b01515f1960f88460031b161c191690555f8080610a13565b818101518355602094850194600190930192909101906109f8565b015190505f8061055e565b9250600285018c5260208c20908c935b601f1984168510610ab4576001945083601f19811610610a9c575b505050811b016002830155610575565b01515f1960f88460031b161c191690555f8080610a8c565b81810151835560209485019460019093019290910190610a71565b015190505f80610500565b9250600185018c5260208c20908c935b601f1984168510610b2d576001945083601f19811610610b15575b505050811b016001830155610517565b01515f1960f88460031b161c191690555f8080610b05565b81810151835560209485019460019093019290910190610aea565b8780fd5b8580fd5b8380fd5b50346101b25760208060031936011261089b57600435610b758115156111a4565b82526002815260408220805490610b8b826113f0565b92610b996040519485610fa4565b82845280840191855280852094915b838310610bbd576040518061015a87826110d4565b600882600192610bcc89611407565b815201960192019194610ba8565b50346101b25760203660031901126101b2576040906004358152600460205220805461015a6101fd60018401610fc5565b50346101b257806003193601126101b257546040516001600160a01b039091168152602090f35b50346101b25760203660031901126101b25760043590610c506114d2565b5081151580610ccf575b15610c8a5760408161015a93610c769352600460205220611407565b604051918291602083526020830190610eb6565b60405162461bcd60e51b815260206004820152601f60248201527f4865616c74685265706f72743a20496e76616c6964207265706f7274204944006044820152606490fd5b50600154821115610c5a565b50346101b25760208060031936011261089b576001600160a01b03610cfe610e5e565b168015610d695782526005815260408220549160038252610d2160408220611486565b9060405193849360408501918552604081860152835180925280606086019401925b828110610d5257505050500390f35b835185528695509381019392810192600101610d43565b60405162461bcd60e51b815260048101839052602260248201527f4865616c74685265706f72743a20496e76616c69642075736572206164647265604482015261737360f01b6064820152608490fd5b90503461089b57602036600319011261089b576001600160a01b03610ddc610e5e565b16908115610e1c575081546001600160a01b031916811782557fa28c7ff640def38baf755289ea829e88a3a5767bd2e274e887810139c514591d8280a280f35b62461bcd60e51b815260206004820152601d60248201527f4865616c74685265706f72743a20496e76616c696420616464726573730000006044820152606490fd5b600435906001600160a01b0382168203610e7457565b5f80fd5b91908251928382525f5b848110610ea2575050825f602080949584010152601f8019910116010190565b602081830181015184830182015201610e82565b908151815260e080610f16610f04610ef2610ee060208801516101008060208a0152880190610e78565b60408801518782036040890152610e78565b60608701518682036060880152610e78565b60808601518582036080870152610e78565b60a0808601516001600160a01b03169085015260c0808601519085015293015191015290565b90600182811c92168015610f6a575b6020831014610f5657565b634e487b7160e01b5f52602260045260245ffd5b91607f1691610f4b565b61010081019081106001600160401b03821117610f9057604052565b634e487b7160e01b5f52604160045260245ffd5b90601f801991011681019081106001600160401b03821117610f9057604052565b9060405191825f825492610fd884610f3c565b9081845260019485811690815f146110435750600114611003575b505061100192500383610fa4565b565b909391505f52602090815f20935f915b81831061102b57505061100193508201015f80610ff3565b85548884018501529485019487945091830191611013565b91505061100194506020925060ff191682840152151560051b8201015f80610ff3565b94919361109f6110bb9461109160e0999c9b9a976110ad958a526101008060208c01528a0190610e78565b9088820360408a0152610e78565b908682036060880152610e78565b908482036080860152610e78565b6001600160a01b0390961660a083015260c08201520152565b602080820190808352835180925260408301928160408460051b8301019501935f915b8483106111075750505050505090565b9091929394958480611125600193603f198682030187528a51610eb6565b98019301930191949392906110f7565b9181601f84011215610e74578235916001600160401b038311610e745760208381860195010111610e7457565b8054821015611177575f5260205f2001905f90565b634e487b7160e01b5f52603260045260245ffd5b8054821015611177575f5260205f209060031b01905f90565b156111ab57565b60405162461bcd60e51b815260206004820152601c60248201527f4865616c74685265706f72743a20496e76616c696420706574204944000000006044820152606490fd5b9291926001600160401b038211610f905760405191611219601f8201601f191660200184610fa4565b829481845281830111610e74578281602093845f960137010152565b1561123c57565b60405162461bcd60e51b815260206004820152601a60248201527f4865616c74685265706f72743a20456d70747920737472696e670000000000006044820152606490fd5b5f19811461128f5760010190565b634e487b7160e01b5f52601160045260245ffd5b90601f81116112b157505050565b5f91825260208220906020601f850160051c830194106112ec575b601f0160051c01915b8281106112e157505050565b8181556001016112d5565b90925082906112cc565b908082146113cc576113088154610f3c565b906001600160401b038211610f9057819061132d826113278654610f3c565b866112a3565b5f90601f8311600114611361575f92611356575b50508160011b915f199060031b1c1916179055565b015490505f80611341565b81526020808220858352818320935090601f1985169083905b8282106113b357505090846001959493921061139b575b505050811b019055565b01545f1960f88460031b161c191690555f8080611391565b849581929585015481556001809101960194019061137a565b5050565b908060209392818452848401375f828201840152601f01601f1916010190565b6001600160401b038111610f905760051b60200190565b9060405161141481610f74565b60e0600782948054845261142a60018201610fc5565b602085015261143b60028201610fc5565b604085015261144c60038201610fc5565b606085015261145d60048201610fc5565b608085015260058101546001600160a01b031660a0850152600681015460c08501520154910152565b906040519182815491828252602092838301915f52835f20935f905b8282106114b85750505061100192500383610fa4565b8554845260019586019588955093810193909101906114a2565b604051906114df82610f74565b5f60e0838281526060602082015260606040820152606080820152606060808201528260a08201528260c08201520152565b9061151b826113f0565b6115286040519182610fa4565b8281528092611539601f19916113f0565b01905f5b82811061154957505050565b6020906115546114d2565b8282850101520161153d565b80518210156111775760209160051b010190565b8015801561160e575b6115eb5760015490818111156115e55750805b61159982611511565b915f5b8181106115a95750505090565b8083039083821161128f576115e0915f5260046020526115cb60405f20611407565b6115d58287611560565b526101418186611560565b61159c565b90611590565b50604051602081018181106001600160401b03821117610f90576040525f815290565b506001541561157d56fea2646970667358221220921ec4352df5045500e26eb0d488bbf0893af50579a8e851d53868961054e8b064736f6c63430008140033","linkReferences":{}},"methodIdentifiers":{"allReports(uint256)":"63d1f251","getContractStats()":"dfe6b5d6","getLatestReports(uint256)":"c4c6002b","getReport(uint256)":"4e7f9b19","getReports(uint256)":"6ccdb778","getReportsByUploader(address)":"fd31af08","getUserStats(address)":"4e43603a","petCoin()":"53bf0ce3","petReports(uint256,uint256)":"f79f1572","totalReports()":"b00eba4f","updatePetCoinContract(address)":"3a321d78","uploadReport(uint256,string,string,string,string)":"7c317c08","uploaderReports(address,uint256)":"ba942e22","userReportCount(address)":"7e01cec9"},"id":50}